{
	"contracts/Marketplace.sol": {
		"Marketplace": {
			"abi": [
				{
					"inputs": [
						{
							"internalType": "address",
							"name": "nftAddress",
							"type": "address"
						},
						{
							"internalType": "uint256",
							"name": "tokenId",
							"type": "uint256"
						}
					],
					"name": "NotListed",
					"type": "error"
				},
				{
					"inputs": [],
					"name": "NotOwner",
					"type": "error"
				},
				{
					"anonymous": false,
					"inputs": [
						{
							"indexed": true,
							"internalType": "address",
							"name": "buyer",
							"type": "address"
						},
						{
							"indexed": true,
							"internalType": "address",
							"name": "nft",
							"type": "address"
						},
						{
							"indexed": true,
							"internalType": "uint256",
							"name": "id",
							"type": "uint256"
						},
						{
							"indexed": false,
							"internalType": "uint256",
							"name": "price",
							"type": "uint256"
						},
						{
							"indexed": false,
							"internalType": "address",
							"name": "token",
							"type": "address"
						}
					],
					"name": "ItemBought",
					"type": "event"
				},
				{
					"anonymous": false,
					"inputs": [
						{
							"indexed": true,
							"internalType": "address",
							"name": "seller",
							"type": "address"
						},
						{
							"indexed": true,
							"internalType": "address",
							"name": "nft",
							"type": "address"
						},
						{
							"indexed": true,
							"internalType": "uint256",
							"name": "id",
							"type": "uint256"
						},
						{
							"indexed": false,
							"internalType": "uint256",
							"name": "price",
							"type": "uint256"
						},
						{
							"indexed": false,
							"internalType": "address",
							"name": "token",
							"type": "address"
						}
					],
					"name": "ItemListed",
					"type": "event"
				},
				{
					"inputs": [
						{
							"internalType": "address",
							"name": "nft",
							"type": "address"
						},
						{
							"internalType": "uint256",
							"name": "id",
							"type": "uint256"
						}
					],
					"name": "buyItem",
					"outputs": [],
					"stateMutability": "nonpayable",
					"type": "function"
				},
				{
					"inputs": [
						{
							"internalType": "address",
							"name": "nft",
							"type": "address"
						},
						{
							"internalType": "uint256",
							"name": "id",
							"type": "uint256"
						}
					],
					"name": "getListing",
					"outputs": [
						{
							"components": [
								{
									"internalType": "bool",
									"name": "active",
									"type": "bool"
								},
								{
									"internalType": "address",
									"name": "seller",
									"type": "address"
								},
								{
									"internalType": "uint256",
									"name": "price",
									"type": "uint256"
								},
								{
									"internalType": "address",
									"name": "token",
									"type": "address"
								}
							],
							"internalType": "struct Listing",
							"name": "",
							"type": "tuple"
						}
					],
					"stateMutability": "view",
					"type": "function"
				},
				{
					"inputs": [
						{
							"internalType": "address",
							"name": "nft",
							"type": "address"
						},
						{
							"internalType": "uint256",
							"name": "id",
							"type": "uint256"
						},
						{
							"internalType": "uint256",
							"name": "price",
							"type": "uint256"
						},
						{
							"internalType": "address",
							"name": "token",
							"type": "address"
						}
					],
					"name": "listItem",
					"outputs": [],
					"stateMutability": "nonpayable",
					"type": "function"
				},
				{
					"inputs": [
						{
							"internalType": "address",
							"name": "nft",
							"type": "address"
						},
						{
							"internalType": "uint256",
							"name": "id",
							"type": "uint256"
						},
						{
							"internalType": "uint256",
							"name": "price",
							"type": "uint256"
						},
						{
							"internalType": "address",
							"name": "token",
							"type": "address"
						}
					],
					"name": "updateListing",
					"outputs": [],
					"stateMutability": "nonpayable",
					"type": "function"
				}
			],
			"devdoc": {
				"kind": "dev",
				"methods": {},
				"version": 1
			},
			"evm": {
				"assembly": "    /* \"contracts/Marketplace.sol\":743:2343  contract Marketplace {... */\n  mstore(0x40, 0x80)\n  callvalue\n  dup1\n  iszero\n  tag_1\n  jumpi\n  0x00\n  dup1\n  revert\ntag_1:\n  pop\n  dataSize(sub_0)\n  dup1\n  dataOffset(sub_0)\n  0x00\n  codecopy\n  0x00\n  return\nstop\n\nsub_0: assembly {\n        /* \"contracts/Marketplace.sol\":743:2343  contract Marketplace {... */\n      mstore(0x40, 0x80)\n      callvalue\n      dup1\n      iszero\n      tag_1\n      jumpi\n      0x00\n      dup1\n      revert\n    tag_1:\n      pop\n      jumpi(tag_2, lt(calldatasize, 0x04))\n      shr(0xe0, calldataload(0x00))\n      dup1\n      0x5930a88c\n      eq\n      tag_3\n      jumpi\n      dup1\n      0x632f9b6a\n      eq\n      tag_4\n      jumpi\n      dup1\n      0x88700d1c\n      eq\n      tag_5\n      jumpi\n      dup1\n      0x9f37092a\n      eq\n      tag_6\n      jumpi\n    tag_2:\n      0x00\n      dup1\n      revert\n        /* \"contracts/Marketplace.sol\":841:1170  function listItem(... */\n    tag_3:\n      tag_7\n      0x04\n      dup1\n      calldatasize\n      sub\n      dup2\n      add\n      swap1\n      tag_8\n      swap2\n      swap1\n      tag_9\n      jump\t// in\n    tag_8:\n      tag_10\n      jump\t// in\n    tag_7:\n      stop\n        /* \"contracts/Marketplace.sol\":1176:1656  function updateListing(... */\n    tag_4:\n      tag_11\n      0x04\n      dup1\n      calldatasize\n      sub\n      dup2\n      add\n      swap1\n      tag_12\n      swap2\n      swap1\n      tag_9\n      jump\t// in\n    tag_12:\n      tag_13\n      jump\t// in\n    tag_11:\n      stop\n        /* \"contracts/Marketplace.sol\":2188:2341  function getListing(address nft, uint256 id)... */\n    tag_5:\n      tag_14\n      0x04\n      dup1\n      calldatasize\n      sub\n      dup2\n      add\n      swap1\n      tag_15\n      swap2\n      swap1\n      tag_16\n      jump\t// in\n    tag_15:\n      tag_17\n      jump\t// in\n    tag_14:\n      mload(0x40)\n      tag_18\n      swap2\n      swap1\n      tag_19\n      jump\t// in\n    tag_18:\n      mload(0x40)\n      dup1\n      swap2\n      sub\n      swap1\n      return\n        /* \"contracts/Marketplace.sol\":1662:2181  function buyItem(address nft, uint256 id) external {... */\n    tag_6:\n      tag_20\n      0x04\n      dup1\n      calldatasize\n      sub\n      dup2\n      add\n      swap1\n      tag_21\n      swap2\n      swap1\n      tag_16\n      jump\t// in\n    tag_21:\n      tag_22\n      jump\t// in\n    tag_20:\n      stop\n        /* \"contracts/Marketplace.sol\":841:1170  function listItem(... */\n    tag_10:\n        /* \"contracts/Marketplace.sol\":991:1029  Listing(true,msg.sender, price, token) */\n      mload(0x40)\n      dup1\n      0x80\n      add\n      0x40\n      mstore\n      dup1\n        /* \"contracts/Marketplace.sol\":999:1003  true */\n      0x01\n        /* \"contracts/Marketplace.sol\":991:1029  Listing(true,msg.sender, price, token) */\n      iszero\n      iszero\n      dup2\n      mstore\n      0x20\n      add\n        /* \"contracts/Marketplace.sol\":1004:1014  msg.sender */\n      caller\n        /* \"contracts/Marketplace.sol\":991:1029  Listing(true,msg.sender, price, token) */\n      0xffffffffffffffffffffffffffffffffffffffff\n      and\n      dup2\n      mstore\n      0x20\n      add\n        /* \"contracts/Marketplace.sol\":1016:1021  price */\n      dup4\n        /* \"contracts/Marketplace.sol\":991:1029  Listing(true,msg.sender, price, token) */\n      dup2\n      mstore\n      0x20\n      add\n        /* \"contracts/Marketplace.sol\":1023:1028  token */\n      dup3\n        /* \"contracts/Marketplace.sol\":991:1029  Listing(true,msg.sender, price, token) */\n      0xffffffffffffffffffffffffffffffffffffffff\n      and\n      dup2\n      mstore\n      pop\n        /* \"contracts/Marketplace.sol\":971:979  listings */\n      0x00\n        /* \"contracts/Marketplace.sol\":971:984  listings[nft] */\n      dup1\n        /* \"contracts/Marketplace.sol\":980:983  nft */\n      dup7\n        /* \"contracts/Marketplace.sol\":971:984  listings[nft] */\n      0xffffffffffffffffffffffffffffffffffffffff\n      and\n      0xffffffffffffffffffffffffffffffffffffffff\n      and\n      dup2\n      mstore\n      0x20\n      add\n      swap1\n      dup2\n      mstore\n      0x20\n      add\n      0x00\n      keccak256\n        /* \"contracts/Marketplace.sol\":971:988  listings[nft][id] */\n      0x00\n        /* \"contracts/Marketplace.sol\":985:987  id */\n      dup6\n        /* \"contracts/Marketplace.sol\":971:988  listings[nft][id] */\n      dup2\n      mstore\n      0x20\n      add\n      swap1\n      dup2\n      mstore\n      0x20\n      add\n      0x00\n      keccak256\n        /* \"contracts/Marketplace.sol\":971:1029  listings[nft][id] = Listing(true,msg.sender, price, token) */\n      0x00\n      dup3\n      add\n      mload\n      dup2\n      0x00\n      add\n      exp(0x0100, 0x00)\n      dup2\n      sload\n      dup2\n      0xff\n      mul\n      not\n      and\n      swap1\n      dup4\n      iszero\n      iszero\n      mul\n      or\n      swap1\n      sstore\n      pop\n      0x20\n      dup3\n      add\n      mload\n      dup2\n      0x00\n      add\n      exp(0x0100, 0x01)\n      dup2\n      sload\n      dup2\n      0xffffffffffffffffffffffffffffffffffffffff\n      mul\n      not\n      and\n      swap1\n      dup4\n      0xffffffffffffffffffffffffffffffffffffffff\n      and\n      mul\n      or\n      swap1\n      sstore\n      pop\n      0x40\n      dup3\n      add\n      mload\n      dup2\n      0x01\n      add\n      sstore\n      0x60\n      dup3\n      add\n      mload\n      dup2\n      0x02\n      add\n      exp(0x0100, 0x00)\n      dup2\n      sload\n      dup2\n      0xffffffffffffffffffffffffffffffffffffffff\n      mul\n      not\n      and\n      swap1\n      dup4\n      0xffffffffffffffffffffffffffffffffffffffff\n      and\n      mul\n      or\n      swap1\n      sstore\n      pop\n      swap1\n      pop\n      pop\n        /* \"contracts/Marketplace.sol\":1047:1050  nft */\n      dup4\n        /* \"contracts/Marketplace.sol\":1039:1068  IERC721(nft).safeTransferFrom */\n      0xffffffffffffffffffffffffffffffffffffffff\n      and\n      0xb88d4fde\n        /* \"contracts/Marketplace.sol\":1069:1079  msg.sender */\n      caller\n        /* \"contracts/Marketplace.sol\":1089:1093  this */\n      address\n        /* \"contracts/Marketplace.sol\":1096:1098  id */\n      dup7\n        /* \"contracts/Marketplace.sol\":1039:1103  IERC721(nft).safeTransferFrom(msg.sender, address(this), id, \"\") */\n      mload(0x40)\n      dup5\n      0xffffffff\n      and\n      0xe0\n      shl\n      dup2\n      mstore\n      0x04\n      add\n      tag_24\n      swap4\n      swap3\n      swap2\n      swap1\n      tag_25\n      jump\t// in\n    tag_24:\n      0x00\n      mload(0x40)\n      dup1\n      dup4\n      sub\n      dup2\n      0x00\n      dup8\n      dup1\n      extcodesize\n      iszero\n      dup1\n      iszero\n      tag_26\n      jumpi\n      0x00\n      dup1\n      revert\n    tag_26:\n      pop\n      gas\n      call\n      iszero\n      dup1\n      iszero\n      tag_28\n      jumpi\n      returndatasize\n      0x00\n      dup1\n      returndatacopy\n      revert(0x00, returndatasize)\n    tag_28:\n      pop\n      pop\n      pop\n      pop\n        /* \"contracts/Marketplace.sol\":1146:1148  id */\n      dup3\n        /* \"contracts/Marketplace.sol\":1141:1144  nft */\n      dup5\n        /* \"contracts/Marketplace.sol\":1118:1163  ItemListed(msg.sender, nft, id, price, token) */\n      0xffffffffffffffffffffffffffffffffffffffff\n      and\n        /* \"contracts/Marketplace.sol\":1129:1139  msg.sender */\n      caller\n        /* \"contracts/Marketplace.sol\":1118:1163  ItemListed(msg.sender, nft, id, price, token) */\n      0xffffffffffffffffffffffffffffffffffffffff\n      and\n      0x4b3569112f949eb5abccc2f448b8f88b58a6a8d9bc127648ea07a021f964d7a6\n        /* \"contracts/Marketplace.sol\":1150:1155  price */\n      dup6\n        /* \"contracts/Marketplace.sol\":1157:1162  token */\n      dup6\n        /* \"contracts/Marketplace.sol\":1118:1163  ItemListed(msg.sender, nft, id, price, token) */\n      mload(0x40)\n      tag_29\n      swap3\n      swap2\n      swap1\n      tag_30\n      jump\t// in\n    tag_29:\n      mload(0x40)\n      dup1\n      swap2\n      sub\n      swap1\n      log4\n        /* \"contracts/Marketplace.sol\":841:1170  function listItem(... */\n      pop\n      pop\n      pop\n      pop\n      jump\t// out\n        /* \"contracts/Marketplace.sol\":1176:1656  function updateListing(... */\n    tag_13:\n        /* \"contracts/Marketplace.sol\":1311:1334  Listing storage listing */\n      0x00\n        /* \"contracts/Marketplace.sol\":1337:1345  listings */\n      dup1\n        /* \"contracts/Marketplace.sol\":1337:1350  listings[nft] */\n      0x00\n        /* \"contracts/Marketplace.sol\":1346:1349  nft */\n      dup7\n        /* \"contracts/Marketplace.sol\":1337:1350  listings[nft] */\n      0xffffffffffffffffffffffffffffffffffffffff\n      and\n      0xffffffffffffffffffffffffffffffffffffffff\n      and\n      dup2\n      mstore\n      0x20\n      add\n      swap1\n      dup2\n      mstore\n      0x20\n      add\n      0x00\n      keccak256\n        /* \"contracts/Marketplace.sol\":1337:1354  listings[nft][id] */\n      0x00\n        /* \"contracts/Marketplace.sol\":1351:1353  id */\n      dup6\n        /* \"contracts/Marketplace.sol\":1337:1354  listings[nft][id] */\n      dup2\n      mstore\n      0x20\n      add\n      swap1\n      dup2\n      mstore\n      0x20\n      add\n      0x00\n      keccak256\n        /* \"contracts/Marketplace.sol\":1311:1354  Listing storage listing = listings[nft][id] */\n      swap1\n      pop\n        /* \"contracts/Marketplace.sol\":1386:1396  msg.sender */\n      caller\n        /* \"contracts/Marketplace.sol\":1368:1396  listing.seller != msg.sender */\n      0xffffffffffffffffffffffffffffffffffffffff\n      and\n        /* \"contracts/Marketplace.sol\":1368:1375  listing */\n      dup2\n        /* \"contracts/Marketplace.sol\":1368:1382  listing.seller */\n      0x00\n      add\n      0x01\n      swap1\n      sload\n      swap1\n      0x0100\n      exp\n      swap1\n      div\n      0xffffffffffffffffffffffffffffffffffffffff\n      and\n        /* \"contracts/Marketplace.sol\":1368:1396  listing.seller != msg.sender */\n      0xffffffffffffffffffffffffffffffffffffffff\n      and\n      eq\n        /* \"contracts/Marketplace.sol\":1364:1440  if (listing.seller != msg.sender) {... */\n      tag_32\n      jumpi\n        /* \"contracts/Marketplace.sol\":1419:1429  NotOwner() */\n      mload(0x40)\n      0x30cd747100000000000000000000000000000000000000000000000000000000\n      dup2\n      mstore\n      0x04\n      add\n      mload(0x40)\n      dup1\n      swap2\n      sub\n      swap1\n      revert\n        /* \"contracts/Marketplace.sol\":1364:1440  if (listing.seller != msg.sender) {... */\n    tag_32:\n        /* \"contracts/Marketplace.sol\":1471:1476  false */\n      0x00\n        /* \"contracts/Marketplace.sol\":1453:1476  listing.active == false */\n      iszero\n      iszero\n        /* \"contracts/Marketplace.sol\":1453:1460  listing */\n      dup2\n        /* \"contracts/Marketplace.sol\":1453:1467  listing.active */\n      0x00\n      add\n      0x00\n      swap1\n      sload\n      swap1\n      0x0100\n      exp\n      swap1\n      div\n      0xff\n      and\n        /* \"contracts/Marketplace.sol\":1453:1476  listing.active == false */\n      iszero\n      iszero\n      sub\n        /* \"contracts/Marketplace.sol\":1449:1528  if (listing.active == false) {... */\n      tag_33\n      jumpi\n        /* \"contracts/Marketplace.sol\":1509:1512  nft */\n      dup5\n        /* \"contracts/Marketplace.sol\":1514:1516  id */\n      dup5\n        /* \"contracts/Marketplace.sol\":1499:1517  NotListed(nft, id) */\n      mload(0x40)\n      0x6831488c00000000000000000000000000000000000000000000000000000000\n      dup2\n      mstore\n      0x04\n      add\n      tag_34\n      swap3\n      swap2\n      swap1\n      tag_35\n      jump\t// in\n    tag_34:\n      mload(0x40)\n      dup1\n      swap2\n      sub\n      swap1\n      revert\n        /* \"contracts/Marketplace.sol\":1449:1528  if (listing.active == false) {... */\n    tag_33:\n        /* \"contracts/Marketplace.sol\":1553:1558  price */\n      dup3\n        /* \"contracts/Marketplace.sol\":1537:1544  listing */\n      dup2\n        /* \"contracts/Marketplace.sol\":1537:1550  listing.price */\n      0x01\n      add\n        /* \"contracts/Marketplace.sol\":1537:1558  listing.price = price */\n      dup2\n      swap1\n      sstore\n      pop\n        /* \"contracts/Marketplace.sol\":1584:1589  token */\n      dup2\n        /* \"contracts/Marketplace.sol\":1568:1575  listing */\n      dup2\n        /* \"contracts/Marketplace.sol\":1568:1581  listing.token */\n      0x02\n      add\n      0x00\n        /* \"contracts/Marketplace.sol\":1568:1589  listing.token = token */\n      0x0100\n      exp\n      dup2\n      sload\n      dup2\n      0xffffffffffffffffffffffffffffffffffffffff\n      mul\n      not\n      and\n      swap1\n      dup4\n      0xffffffffffffffffffffffffffffffffffffffff\n      and\n      mul\n      or\n      swap1\n      sstore\n      pop\n        /* \"contracts/Marketplace.sol\":1632:1634  id */\n      dup4\n        /* \"contracts/Marketplace.sol\":1627:1630  nft */\n      dup6\n        /* \"contracts/Marketplace.sol\":1604:1649  ItemListed(msg.sender, nft, id, price, token) */\n      0xffffffffffffffffffffffffffffffffffffffff\n      and\n        /* \"contracts/Marketplace.sol\":1615:1625  msg.sender */\n      caller\n        /* \"contracts/Marketplace.sol\":1604:1649  ItemListed(msg.sender, nft, id, price, token) */\n      0xffffffffffffffffffffffffffffffffffffffff\n      and\n      0x4b3569112f949eb5abccc2f448b8f88b58a6a8d9bc127648ea07a021f964d7a6\n        /* \"contracts/Marketplace.sol\":1636:1641  price */\n      dup7\n        /* \"contracts/Marketplace.sol\":1643:1648  token */\n      dup7\n        /* \"contracts/Marketplace.sol\":1604:1649  ItemListed(msg.sender, nft, id, price, token) */\n      mload(0x40)\n      tag_36\n      swap3\n      swap2\n      swap1\n      tag_30\n      jump\t// in\n    tag_36:\n      mload(0x40)\n      dup1\n      swap2\n      sub\n      swap1\n      log4\n        /* \"contracts/Marketplace.sol\":1301:1656  {... */\n      pop\n        /* \"contracts/Marketplace.sol\":1176:1656  function updateListing(... */\n      pop\n      pop\n      pop\n      pop\n      jump\t// out\n        /* \"contracts/Marketplace.sol\":2188:2341  function getListing(address nft, uint256 id)... */\n    tag_17:\n        /* \"contracts/Marketplace.sol\":2280:2294  Listing memory */\n      tag_37\n      tag_38\n      jump\t// in\n    tag_37:\n        /* \"contracts/Marketplace.sol\":2317:2325  listings */\n      0x00\n        /* \"contracts/Marketplace.sol\":2317:2330  listings[nft] */\n      dup1\n        /* \"contracts/Marketplace.sol\":2326:2329  nft */\n      dup5\n        /* \"contracts/Marketplace.sol\":2317:2330  listings[nft] */\n      0xffffffffffffffffffffffffffffffffffffffff\n      and\n      0xffffffffffffffffffffffffffffffffffffffff\n      and\n      dup2\n      mstore\n      0x20\n      add\n      swap1\n      dup2\n      mstore\n      0x20\n      add\n      0x00\n      keccak256\n        /* \"contracts/Marketplace.sol\":2317:2334  listings[nft][id] */\n      0x00\n        /* \"contracts/Marketplace.sol\":2331:2333  id */\n      dup4\n        /* \"contracts/Marketplace.sol\":2317:2334  listings[nft][id] */\n      dup2\n      mstore\n      0x20\n      add\n      swap1\n      dup2\n      mstore\n      0x20\n      add\n      0x00\n      keccak256\n        /* \"contracts/Marketplace.sol\":2310:2334  return listings[nft][id] */\n      mload(0x40)\n      dup1\n      0x80\n      add\n      0x40\n      mstore\n      swap1\n      dup2\n      0x00\n      dup3\n      add\n      0x00\n      swap1\n      sload\n      swap1\n      0x0100\n      exp\n      swap1\n      div\n      0xff\n      and\n      iszero\n      iszero\n      iszero\n      iszero\n      dup2\n      mstore\n      0x20\n      add\n      0x00\n      dup3\n      add\n      0x01\n      swap1\n      sload\n      swap1\n      0x0100\n      exp\n      swap1\n      div\n      0xffffffffffffffffffffffffffffffffffffffff\n      and\n      0xffffffffffffffffffffffffffffffffffffffff\n      and\n      0xffffffffffffffffffffffffffffffffffffffff\n      and\n      dup2\n      mstore\n      0x20\n      add\n      0x01\n      dup3\n      add\n      sload\n      dup2\n      mstore\n      0x20\n      add\n      0x02\n      dup3\n      add\n      0x00\n      swap1\n      sload\n      swap1\n      0x0100\n      exp\n      swap1\n      div\n      0xffffffffffffffffffffffffffffffffffffffff\n      and\n      0xffffffffffffffffffffffffffffffffffffffff\n      and\n      0xffffffffffffffffffffffffffffffffffffffff\n      and\n      dup2\n      mstore\n      pop\n      pop\n      swap1\n      pop\n        /* \"contracts/Marketplace.sol\":2188:2341  function getListing(address nft, uint256 id)... */\n      swap3\n      swap2\n      pop\n      pop\n      jump\t// out\n        /* \"contracts/Marketplace.sol\":1662:2181  function buyItem(address nft, uint256 id) external {... */\n    tag_22:\n        /* \"contracts/Marketplace.sol\":1723:1745  Listing memory listing */\n      0x00\n        /* \"contracts/Marketplace.sol\":1748:1756  listings */\n      dup1\n        /* \"contracts/Marketplace.sol\":1748:1761  listings[nft] */\n      0x00\n        /* \"contracts/Marketplace.sol\":1757:1760  nft */\n      dup5\n        /* \"contracts/Marketplace.sol\":1748:1761  listings[nft] */\n      0xffffffffffffffffffffffffffffffffffffffff\n      and\n      0xffffffffffffffffffffffffffffffffffffffff\n      and\n      dup2\n      mstore\n      0x20\n      add\n      swap1\n      dup2\n      mstore\n      0x20\n      add\n      0x00\n      keccak256\n        /* \"contracts/Marketplace.sol\":1748:1765  listings[nft][id] */\n      0x00\n        /* \"contracts/Marketplace.sol\":1762:1764  id */\n      dup4\n        /* \"contracts/Marketplace.sol\":1748:1765  listings[nft][id] */\n      dup2\n      mstore\n      0x20\n      add\n      swap1\n      dup2\n      mstore\n      0x20\n      add\n      0x00\n      keccak256\n        /* \"contracts/Marketplace.sol\":1723:1765  Listing memory listing = listings[nft][id] */\n      mload(0x40)\n      dup1\n      0x80\n      add\n      0x40\n      mstore\n      swap1\n      dup2\n      0x00\n      dup3\n      add\n      0x00\n      swap1\n      sload\n      swap1\n      0x0100\n      exp\n      swap1\n      div\n      0xff\n      and\n      iszero\n      iszero\n      iszero\n      iszero\n      dup2\n      mstore\n      0x20\n      add\n      0x00\n      dup3\n      add\n      0x01\n      swap1\n      sload\n      swap1\n      0x0100\n      exp\n      swap1\n      div\n      0xffffffffffffffffffffffffffffffffffffffff\n      and\n      0xffffffffffffffffffffffffffffffffffffffff\n      and\n      0xffffffffffffffffffffffffffffffffffffffff\n      and\n      dup2\n      mstore\n      0x20\n      add\n      0x01\n      dup3\n      add\n      sload\n      dup2\n      mstore\n      0x20\n      add\n      0x02\n      dup3\n      add\n      0x00\n      swap1\n      sload\n      swap1\n      0x0100\n      exp\n      swap1\n      div\n      0xffffffffffffffffffffffffffffffffffffffff\n      and\n      0xffffffffffffffffffffffffffffffffffffffff\n      and\n      0xffffffffffffffffffffffffffffffffffffffff\n      and\n      dup2\n      mstore\n      pop\n      pop\n      swap1\n      pop\n        /* \"contracts/Marketplace.sol\":1807:1812  false */\n      0x00\n        /* \"contracts/Marketplace.sol\":1779:1812  listings[nft][id].active == false */\n      iszero\n      iszero\n        /* \"contracts/Marketplace.sol\":1779:1787  listings */\n      0x00\n        /* \"contracts/Marketplace.sol\":1779:1792  listings[nft] */\n      dup1\n        /* \"contracts/Marketplace.sol\":1788:1791  nft */\n      dup6\n        /* \"contracts/Marketplace.sol\":1779:1792  listings[nft] */\n      0xffffffffffffffffffffffffffffffffffffffff\n      and\n      0xffffffffffffffffffffffffffffffffffffffff\n      and\n      dup2\n      mstore\n      0x20\n      add\n      swap1\n      dup2\n      mstore\n      0x20\n      add\n      0x00\n      keccak256\n        /* \"contracts/Marketplace.sol\":1779:1796  listings[nft][id] */\n      0x00\n        /* \"contracts/Marketplace.sol\":1793:1795  id */\n      dup5\n        /* \"contracts/Marketplace.sol\":1779:1796  listings[nft][id] */\n      dup2\n      mstore\n      0x20\n      add\n      swap1\n      dup2\n      mstore\n      0x20\n      add\n      0x00\n      keccak256\n        /* \"contracts/Marketplace.sol\":1779:1803  listings[nft][id].active */\n      0x00\n      add\n      0x00\n      swap1\n      sload\n      swap1\n      0x0100\n      exp\n      swap1\n      div\n      0xff\n      and\n        /* \"contracts/Marketplace.sol\":1779:1812  listings[nft][id].active == false */\n      iszero\n      iszero\n      sub\n        /* \"contracts/Marketplace.sol\":1775:1864  if (listings[nft][id].active == false) {... */\n      tag_41\n      jumpi\n        /* \"contracts/Marketplace.sol\":1845:1848  nft */\n      dup3\n        /* \"contracts/Marketplace.sol\":1850:1852  id */\n      dup3\n        /* \"contracts/Marketplace.sol\":1835:1853  NotListed(nft, id) */\n      mload(0x40)\n      0x6831488c00000000000000000000000000000000000000000000000000000000\n      dup2\n      mstore\n      0x04\n      add\n      tag_42\n      swap3\n      swap2\n      swap1\n      tag_35\n      jump\t// in\n    tag_42:\n      mload(0x40)\n      dup1\n      swap2\n      sub\n      swap1\n      revert\n        /* \"contracts/Marketplace.sol\":1775:1864  if (listings[nft][id].active == false) {... */\n    tag_41:\n        /* \"contracts/Marketplace.sol\":1880:1887  listing */\n      dup1\n        /* \"contracts/Marketplace.sol\":1880:1893  listing.token */\n      0x60\n      add\n      mload\n        /* \"contracts/Marketplace.sol\":1873:1907  IERC20(listing.token).transferFrom */\n      0xffffffffffffffffffffffffffffffffffffffff\n      and\n      0x23b872dd\n        /* \"contracts/Marketplace.sol\":1921:1931  msg.sender */\n      caller\n        /* \"contracts/Marketplace.sol\":1945:1952  listing */\n      dup4\n        /* \"contracts/Marketplace.sol\":1945:1959  listing.seller */\n      0x20\n      add\n      mload\n        /* \"contracts/Marketplace.sol\":1973:1980  listing */\n      dup5\n        /* \"contracts/Marketplace.sol\":1973:1986  listing.price */\n      0x40\n      add\n      mload\n        /* \"contracts/Marketplace.sol\":1873:1996  IERC20(listing.token).transferFrom(... */\n      mload(0x40)\n      dup5\n      0xffffffff\n      and\n      0xe0\n      shl\n      dup2\n      mstore\n      0x04\n      add\n      tag_43\n      swap4\n      swap3\n      swap2\n      swap1\n      tag_44\n      jump\t// in\n    tag_43:\n      0x20\n      mload(0x40)\n      dup1\n      dup4\n      sub\n      dup2\n      0x00\n      dup8\n      gas\n      call\n      iszero\n      dup1\n      iszero\n      tag_46\n      jumpi\n      returndatasize\n      0x00\n      dup1\n      returndatacopy\n      revert(0x00, returndatasize)\n    tag_46:\n      pop\n      pop\n      pop\n      pop\n      mload(0x40)\n      returndatasize\n      not(0x1f)\n      0x1f\n      dup3\n      add\n      and\n      dup3\n      add\n      dup1\n      0x40\n      mstore\n      pop\n      dup2\n      add\n      swap1\n      tag_47\n      swap2\n      swap1\n      tag_48\n      jump\t// in\n    tag_47:\n      pop\n        /* \"contracts/Marketplace.sol\":2014:2017  nft */\n      dup3\n        /* \"contracts/Marketplace.sol\":2006:2031  IERC721(nft).transferFrom */\n      0xffffffffffffffffffffffffffffffffffffffff\n      and\n      0x23b872dd\n        /* \"contracts/Marketplace.sol\":2040:2044  this */\n      address\n        /* \"contracts/Marketplace.sol\":2047:2057  msg.sender */\n      caller\n        /* \"contracts/Marketplace.sol\":2059:2061  id */\n      dup6\n        /* \"contracts/Marketplace.sol\":2006:2062  IERC721(nft).transferFrom(address(this), msg.sender, id) */\n      mload(0x40)\n      dup5\n      0xffffffff\n      and\n      0xe0\n      shl\n      dup2\n      mstore\n      0x04\n      add\n      tag_49\n      swap4\n      swap3\n      swap2\n      swap1\n      tag_44\n      jump\t// in\n    tag_49:\n      0x00\n      mload(0x40)\n      dup1\n      dup4\n      sub\n      dup2\n      0x00\n      dup8\n      dup1\n      extcodesize\n      iszero\n      dup1\n      iszero\n      tag_50\n      jumpi\n      0x00\n      dup1\n      revert\n    tag_50:\n      pop\n      gas\n      call\n      iszero\n      dup1\n      iszero\n      tag_52\n      jumpi\n      returndatasize\n      0x00\n      dup1\n      returndatacopy\n      revert(0x00, returndatasize)\n    tag_52:\n      pop\n      pop\n      pop\n      pop\n        /* \"contracts/Marketplace.sol\":2080:2088  listings */\n      0x00\n        /* \"contracts/Marketplace.sol\":2080:2093  listings[nft] */\n      dup1\n        /* \"contracts/Marketplace.sol\":2089:2092  nft */\n      dup5\n        /* \"contracts/Marketplace.sol\":2080:2093  listings[nft] */\n      0xffffffffffffffffffffffffffffffffffffffff\n      and\n      0xffffffffffffffffffffffffffffffffffffffff\n      and\n      dup2\n      mstore\n      0x20\n      add\n      swap1\n      dup2\n      mstore\n      0x20\n      add\n      0x00\n      keccak256\n        /* \"contracts/Marketplace.sol\":2080:2097  listings[nft][id] */\n      0x00\n        /* \"contracts/Marketplace.sol\":2094:2096  id */\n      dup4\n        /* \"contracts/Marketplace.sol\":2080:2097  listings[nft][id] */\n      dup2\n      mstore\n      0x20\n      add\n      swap1\n      dup2\n      mstore\n      0x20\n      add\n      0x00\n      keccak256\n      0x00\n        /* \"contracts/Marketplace.sol\":2072:2098  delete (listings[nft][id]) */\n      dup1\n      dup3\n      add\n      exp(0x0100, 0x00)\n      dup2\n      sload\n      swap1\n      0xff\n      mul\n      not\n      and\n      swap1\n      sstore\n      0x00\n      dup3\n      add\n      exp(0x0100, 0x01)\n      dup2\n      sload\n      swap1\n      0xffffffffffffffffffffffffffffffffffffffff\n      mul\n      not\n      and\n      swap1\n      sstore\n      0x01\n      dup3\n      add\n      0x00\n      swap1\n      sstore\n      0x02\n      dup3\n      add\n      exp(0x0100, 0x00)\n      dup2\n      sload\n      swap1\n      0xffffffffffffffffffffffffffffffffffffffff\n      mul\n      not\n      and\n      swap1\n      sstore\n      pop\n      pop\n        /* \"contracts/Marketplace.sol\":2141:2143  id */\n      dup2\n        /* \"contracts/Marketplace.sol\":2136:2139  nft */\n      dup4\n        /* \"contracts/Marketplace.sol\":2113:2174  ItemBought(msg.sender, nft, id, listing.price, listing.token) */\n      0xffffffffffffffffffffffffffffffffffffffff\n      and\n        /* \"contracts/Marketplace.sol\":2124:2134  msg.sender */\n      caller\n        /* \"contracts/Marketplace.sol\":2113:2174  ItemBought(msg.sender, nft, id, listing.price, listing.token) */\n      0xffffffffffffffffffffffffffffffffffffffff\n      and\n      0xb6cb1aca667c257d2d8541b104eae07a4e749c66bbb2ca67a2cec1b07db7c4f1\n        /* \"contracts/Marketplace.sol\":2145:2152  listing */\n      dup5\n        /* \"contracts/Marketplace.sol\":2145:2158  listing.price */\n      0x40\n      add\n      mload\n        /* \"contracts/Marketplace.sol\":2160:2167  listing */\n      dup6\n        /* \"contracts/Marketplace.sol\":2160:2173  listing.token */\n      0x60\n      add\n      mload\n        /* \"contracts/Marketplace.sol\":2113:2174  ItemBought(msg.sender, nft, id, listing.price, listing.token) */\n      mload(0x40)\n      tag_53\n      swap3\n      swap2\n      swap1\n      tag_30\n      jump\t// in\n    tag_53:\n      mload(0x40)\n      dup1\n      swap2\n      sub\n      swap1\n      log4\n        /* \"contracts/Marketplace.sol\":1713:2181  {... */\n      pop\n        /* \"contracts/Marketplace.sol\":1662:2181  function buyItem(address nft, uint256 id) external {... */\n      pop\n      pop\n      jump\t// out\n    tag_38:\n      mload(0x40)\n      dup1\n      0x80\n      add\n      0x40\n      mstore\n      dup1\n      iszero(iszero(0x00))\n      dup2\n      mstore\n      0x20\n      add\n      and(0xffffffffffffffffffffffffffffffffffffffff, 0x00)\n      dup2\n      mstore\n      0x20\n      add\n      0x00\n      dup2\n      mstore\n      0x20\n      add\n      and(0xffffffffffffffffffffffffffffffffffffffff, 0x00)\n      dup2\n      mstore\n      pop\n      swap1\n      jump\t// out\n        /* \"#utility.yul\":88:205   */\n    tag_55:\n        /* \"#utility.yul\":197:198   */\n      0x00\n        /* \"#utility.yul\":194:195   */\n      dup1\n        /* \"#utility.yul\":187:199   */\n      revert\n        /* \"#utility.yul\":334:460   */\n    tag_57:\n        /* \"#utility.yul\":371:378   */\n      0x00\n        /* \"#utility.yul\":411:453   */\n      0xffffffffffffffffffffffffffffffffffffffff\n        /* \"#utility.yul\":404:409   */\n      dup3\n        /* \"#utility.yul\":400:454   */\n      and\n        /* \"#utility.yul\":389:454   */\n      swap1\n      pop\n        /* \"#utility.yul\":334:460   */\n      swap2\n      swap1\n      pop\n      jump\t// out\n        /* \"#utility.yul\":466:562   */\n    tag_58:\n        /* \"#utility.yul\":503:510   */\n      0x00\n        /* \"#utility.yul\":532:556   */\n      tag_82\n        /* \"#utility.yul\":550:555   */\n      dup3\n        /* \"#utility.yul\":532:556   */\n      tag_57\n      jump\t// in\n    tag_82:\n        /* \"#utility.yul\":521:556   */\n      swap1\n      pop\n        /* \"#utility.yul\":466:562   */\n      swap2\n      swap1\n      pop\n      jump\t// out\n        /* \"#utility.yul\":568:690   */\n    tag_59:\n        /* \"#utility.yul\":641:665   */\n      tag_84\n        /* \"#utility.yul\":659:664   */\n      dup2\n        /* \"#utility.yul\":641:665   */\n      tag_58\n      jump\t// in\n    tag_84:\n        /* \"#utility.yul\":634:639   */\n      dup2\n        /* \"#utility.yul\":631:666   */\n      eq\n        /* \"#utility.yul\":621:684   */\n      tag_85\n      jumpi\n        /* \"#utility.yul\":680:681   */\n      0x00\n        /* \"#utility.yul\":677:678   */\n      dup1\n        /* \"#utility.yul\":670:682   */\n      revert\n        /* \"#utility.yul\":621:684   */\n    tag_85:\n        /* \"#utility.yul\":568:690   */\n      pop\n      jump\t// out\n        /* \"#utility.yul\":696:835   */\n    tag_60:\n        /* \"#utility.yul\":742:747   */\n      0x00\n        /* \"#utility.yul\":780:786   */\n      dup2\n        /* \"#utility.yul\":767:787   */\n      calldataload\n        /* \"#utility.yul\":758:787   */\n      swap1\n      pop\n        /* \"#utility.yul\":796:829   */\n      tag_87\n        /* \"#utility.yul\":823:828   */\n      dup2\n        /* \"#utility.yul\":796:829   */\n      tag_59\n      jump\t// in\n    tag_87:\n        /* \"#utility.yul\":696:835   */\n      swap3\n      swap2\n      pop\n      pop\n      jump\t// out\n        /* \"#utility.yul\":841:918   */\n    tag_61:\n        /* \"#utility.yul\":878:885   */\n      0x00\n        /* \"#utility.yul\":907:912   */\n      dup2\n        /* \"#utility.yul\":896:912   */\n      swap1\n      pop\n        /* \"#utility.yul\":841:918   */\n      swap2\n      swap1\n      pop\n      jump\t// out\n        /* \"#utility.yul\":924:1046   */\n    tag_62:\n        /* \"#utility.yul\":997:1021   */\n      tag_90\n        /* \"#utility.yul\":1015:1020   */\n      dup2\n        /* \"#utility.yul\":997:1021   */\n      tag_61\n      jump\t// in\n    tag_90:\n        /* \"#utility.yul\":990:995   */\n      dup2\n        /* \"#utility.yul\":987:1022   */\n      eq\n        /* \"#utility.yul\":977:1040   */\n      tag_91\n      jumpi\n        /* \"#utility.yul\":1036:1037   */\n      0x00\n        /* \"#utility.yul\":1033:1034   */\n      dup1\n        /* \"#utility.yul\":1026:1038   */\n      revert\n        /* \"#utility.yul\":977:1040   */\n    tag_91:\n        /* \"#utility.yul\":924:1046   */\n      pop\n      jump\t// out\n        /* \"#utility.yul\":1052:1191   */\n    tag_63:\n        /* \"#utility.yul\":1098:1103   */\n      0x00\n        /* \"#utility.yul\":1136:1142   */\n      dup2\n        /* \"#utility.yul\":1123:1143   */\n      calldataload\n        /* \"#utility.yul\":1114:1143   */\n      swap1\n      pop\n        /* \"#utility.yul\":1152:1185   */\n      tag_93\n        /* \"#utility.yul\":1179:1184   */\n      dup2\n        /* \"#utility.yul\":1152:1185   */\n      tag_62\n      jump\t// in\n    tag_93:\n        /* \"#utility.yul\":1052:1191   */\n      swap3\n      swap2\n      pop\n      pop\n      jump\t// out\n        /* \"#utility.yul\":1197:1962   */\n    tag_9:\n        /* \"#utility.yul\":1283:1289   */\n      0x00\n        /* \"#utility.yul\":1291:1297   */\n      dup1\n        /* \"#utility.yul\":1299:1305   */\n      0x00\n        /* \"#utility.yul\":1307:1313   */\n      dup1\n        /* \"#utility.yul\":1356:1359   */\n      0x80\n        /* \"#utility.yul\":1344:1353   */\n      dup6\n        /* \"#utility.yul\":1335:1342   */\n      dup8\n        /* \"#utility.yul\":1331:1354   */\n      sub\n        /* \"#utility.yul\":1327:1360   */\n      slt\n        /* \"#utility.yul\":1324:1444   */\n      iszero\n      tag_95\n      jumpi\n        /* \"#utility.yul\":1363:1442   */\n      tag_96\n      tag_55\n      jump\t// in\n    tag_96:\n        /* \"#utility.yul\":1324:1444   */\n    tag_95:\n        /* \"#utility.yul\":1483:1484   */\n      0x00\n        /* \"#utility.yul\":1508:1561   */\n      tag_97\n        /* \"#utility.yul\":1553:1560   */\n      dup8\n        /* \"#utility.yul\":1544:1550   */\n      dup3\n        /* \"#utility.yul\":1533:1542   */\n      dup9\n        /* \"#utility.yul\":1529:1551   */\n      add\n        /* \"#utility.yul\":1508:1561   */\n      tag_60\n      jump\t// in\n    tag_97:\n        /* \"#utility.yul\":1498:1561   */\n      swap5\n      pop\n        /* \"#utility.yul\":1454:1571   */\n      pop\n        /* \"#utility.yul\":1610:1612   */\n      0x20\n        /* \"#utility.yul\":1636:1689   */\n      tag_98\n        /* \"#utility.yul\":1681:1688   */\n      dup8\n        /* \"#utility.yul\":1672:1678   */\n      dup3\n        /* \"#utility.yul\":1661:1670   */\n      dup9\n        /* \"#utility.yul\":1657:1679   */\n      add\n        /* \"#utility.yul\":1636:1689   */\n      tag_63\n      jump\t// in\n    tag_98:\n        /* \"#utility.yul\":1626:1689   */\n      swap4\n      pop\n        /* \"#utility.yul\":1581:1699   */\n      pop\n        /* \"#utility.yul\":1738:1740   */\n      0x40\n        /* \"#utility.yul\":1764:1817   */\n      tag_99\n        /* \"#utility.yul\":1809:1816   */\n      dup8\n        /* \"#utility.yul\":1800:1806   */\n      dup3\n        /* \"#utility.yul\":1789:1798   */\n      dup9\n        /* \"#utility.yul\":1785:1807   */\n      add\n        /* \"#utility.yul\":1764:1817   */\n      tag_63\n      jump\t// in\n    tag_99:\n        /* \"#utility.yul\":1754:1817   */\n      swap3\n      pop\n        /* \"#utility.yul\":1709:1827   */\n      pop\n        /* \"#utility.yul\":1866:1868   */\n      0x60\n        /* \"#utility.yul\":1892:1945   */\n      tag_100\n        /* \"#utility.yul\":1937:1944   */\n      dup8\n        /* \"#utility.yul\":1928:1934   */\n      dup3\n        /* \"#utility.yul\":1917:1926   */\n      dup9\n        /* \"#utility.yul\":1913:1935   */\n      add\n        /* \"#utility.yul\":1892:1945   */\n      tag_60\n      jump\t// in\n    tag_100:\n        /* \"#utility.yul\":1882:1945   */\n      swap2\n      pop\n        /* \"#utility.yul\":1837:1955   */\n      pop\n        /* \"#utility.yul\":1197:1962   */\n      swap3\n      swap6\n      swap2\n      swap5\n      pop\n      swap3\n      pop\n      jump\t// out\n        /* \"#utility.yul\":1968:2442   */\n    tag_16:\n        /* \"#utility.yul\":2036:2042   */\n      0x00\n        /* \"#utility.yul\":2044:2050   */\n      dup1\n        /* \"#utility.yul\":2093:2095   */\n      0x40\n        /* \"#utility.yul\":2081:2090   */\n      dup4\n        /* \"#utility.yul\":2072:2079   */\n      dup6\n        /* \"#utility.yul\":2068:2091   */\n      sub\n        /* \"#utility.yul\":2064:2096   */\n      slt\n        /* \"#utility.yul\":2061:2180   */\n      iszero\n      tag_102\n      jumpi\n        /* \"#utility.yul\":2099:2178   */\n      tag_103\n      tag_55\n      jump\t// in\n    tag_103:\n        /* \"#utility.yul\":2061:2180   */\n    tag_102:\n        /* \"#utility.yul\":2219:2220   */\n      0x00\n        /* \"#utility.yul\":2244:2297   */\n      tag_104\n        /* \"#utility.yul\":2289:2296   */\n      dup6\n        /* \"#utility.yul\":2280:2286   */\n      dup3\n        /* \"#utility.yul\":2269:2278   */\n      dup7\n        /* \"#utility.yul\":2265:2287   */\n      add\n        /* \"#utility.yul\":2244:2297   */\n      tag_60\n      jump\t// in\n    tag_104:\n        /* \"#utility.yul\":2234:2297   */\n      swap3\n      pop\n        /* \"#utility.yul\":2190:2307   */\n      pop\n        /* \"#utility.yul\":2346:2348   */\n      0x20\n        /* \"#utility.yul\":2372:2425   */\n      tag_105\n        /* \"#utility.yul\":2417:2424   */\n      dup6\n        /* \"#utility.yul\":2408:2414   */\n      dup3\n        /* \"#utility.yul\":2397:2406   */\n      dup7\n        /* \"#utility.yul\":2393:2415   */\n      add\n        /* \"#utility.yul\":2372:2425   */\n      tag_63\n      jump\t// in\n    tag_105:\n        /* \"#utility.yul\":2362:2425   */\n      swap2\n      pop\n        /* \"#utility.yul\":2317:2435   */\n      pop\n        /* \"#utility.yul\":1968:2442   */\n      swap3\n      pop\n      swap3\n      swap1\n      pop\n      jump\t// out\n        /* \"#utility.yul\":2448:2538   */\n    tag_64:\n        /* \"#utility.yul\":2482:2489   */\n      0x00\n        /* \"#utility.yul\":2525:2530   */\n      dup2\n        /* \"#utility.yul\":2518:2531   */\n      iszero\n        /* \"#utility.yul\":2511:2532   */\n      iszero\n        /* \"#utility.yul\":2500:2532   */\n      swap1\n      pop\n        /* \"#utility.yul\":2448:2538   */\n      swap2\n      swap1\n      pop\n      jump\t// out\n        /* \"#utility.yul\":2544:2643   */\n    tag_65:\n        /* \"#utility.yul\":2615:2636   */\n      tag_108\n        /* \"#utility.yul\":2630:2635   */\n      dup2\n        /* \"#utility.yul\":2615:2636   */\n      tag_64\n      jump\t// in\n    tag_108:\n        /* \"#utility.yul\":2610:2613   */\n      dup3\n        /* \"#utility.yul\":2603:2637   */\n      mstore\n        /* \"#utility.yul\":2544:2643   */\n      pop\n      pop\n      jump\t// out\n        /* \"#utility.yul\":2649:2757   */\n    tag_66:\n        /* \"#utility.yul\":2726:2750   */\n      tag_110\n        /* \"#utility.yul\":2744:2749   */\n      dup2\n        /* \"#utility.yul\":2726:2750   */\n      tag_58\n      jump\t// in\n    tag_110:\n        /* \"#utility.yul\":2721:2724   */\n      dup3\n        /* \"#utility.yul\":2714:2751   */\n      mstore\n        /* \"#utility.yul\":2649:2757   */\n      pop\n      pop\n      jump\t// out\n        /* \"#utility.yul\":2763:2871   */\n    tag_67:\n        /* \"#utility.yul\":2840:2864   */\n      tag_112\n        /* \"#utility.yul\":2858:2863   */\n      dup2\n        /* \"#utility.yul\":2840:2864   */\n      tag_61\n      jump\t// in\n    tag_112:\n        /* \"#utility.yul\":2835:2838   */\n      dup3\n        /* \"#utility.yul\":2828:2865   */\n      mstore\n        /* \"#utility.yul\":2763:2871   */\n      pop\n      pop\n      jump\t// out\n        /* \"#utility.yul\":2917:3770   */\n    tag_68:\n        /* \"#utility.yul\":3062:3066   */\n      0x80\n        /* \"#utility.yul\":3057:3060   */\n      dup3\n        /* \"#utility.yul\":3053:3067   */\n      add\n        /* \"#utility.yul\":3151:3155   */\n      0x00\n        /* \"#utility.yul\":3144:3149   */\n      dup3\n        /* \"#utility.yul\":3140:3156   */\n      add\n        /* \"#utility.yul\":3134:3157   */\n      mload\n        /* \"#utility.yul\":3170:3227   */\n      tag_114\n        /* \"#utility.yul\":3221:3225   */\n      0x00\n        /* \"#utility.yul\":3216:3219   */\n      dup6\n        /* \"#utility.yul\":3212:3226   */\n      add\n        /* \"#utility.yul\":3198:3210   */\n      dup3\n        /* \"#utility.yul\":3170:3227   */\n      tag_65\n      jump\t// in\n    tag_114:\n        /* \"#utility.yul\":3077:3237   */\n      pop\n        /* \"#utility.yul\":3321:3325   */\n      0x20\n        /* \"#utility.yul\":3314:3319   */\n      dup3\n        /* \"#utility.yul\":3310:3326   */\n      add\n        /* \"#utility.yul\":3304:3327   */\n      mload\n        /* \"#utility.yul\":3340:3403   */\n      tag_115\n        /* \"#utility.yul\":3397:3401   */\n      0x20\n        /* \"#utility.yul\":3392:3395   */\n      dup6\n        /* \"#utility.yul\":3388:3402   */\n      add\n        /* \"#utility.yul\":3374:3386   */\n      dup3\n        /* \"#utility.yul\":3340:3403   */\n      tag_66\n      jump\t// in\n    tag_115:\n        /* \"#utility.yul\":3247:3413   */\n      pop\n        /* \"#utility.yul\":3496:3500   */\n      0x40\n        /* \"#utility.yul\":3489:3494   */\n      dup3\n        /* \"#utility.yul\":3485:3501   */\n      add\n        /* \"#utility.yul\":3479:3502   */\n      mload\n        /* \"#utility.yul\":3515:3578   */\n      tag_116\n        /* \"#utility.yul\":3572:3576   */\n      0x40\n        /* \"#utility.yul\":3567:3570   */\n      dup6\n        /* \"#utility.yul\":3563:3577   */\n      add\n        /* \"#utility.yul\":3549:3561   */\n      dup3\n        /* \"#utility.yul\":3515:3578   */\n      tag_67\n      jump\t// in\n    tag_116:\n        /* \"#utility.yul\":3423:3588   */\n      pop\n        /* \"#utility.yul\":3671:3675   */\n      0x60\n        /* \"#utility.yul\":3664:3669   */\n      dup3\n        /* \"#utility.yul\":3660:3676   */\n      add\n        /* \"#utility.yul\":3654:3677   */\n      mload\n        /* \"#utility.yul\":3690:3753   */\n      tag_117\n        /* \"#utility.yul\":3747:3751   */\n      0x60\n        /* \"#utility.yul\":3742:3745   */\n      dup6\n        /* \"#utility.yul\":3738:3752   */\n      add\n        /* \"#utility.yul\":3724:3736   */\n      dup3\n        /* \"#utility.yul\":3690:3753   */\n      tag_66\n      jump\t// in\n    tag_117:\n        /* \"#utility.yul\":3598:3763   */\n      pop\n        /* \"#utility.yul\":3031:3770   */\n      pop\n        /* \"#utility.yul\":2917:3770   */\n      pop\n      pop\n      jump\t// out\n        /* \"#utility.yul\":3776:4095   */\n    tag_19:\n        /* \"#utility.yul\":3917:3921   */\n      0x00\n        /* \"#utility.yul\":3955:3958   */\n      0x80\n        /* \"#utility.yul\":3944:3953   */\n      dup3\n        /* \"#utility.yul\":3940:3959   */\n      add\n        /* \"#utility.yul\":3932:3959   */\n      swap1\n      pop\n        /* \"#utility.yul\":3969:4088   */\n      tag_119\n        /* \"#utility.yul\":4085:4086   */\n      0x00\n        /* \"#utility.yul\":4074:4083   */\n      dup4\n        /* \"#utility.yul\":4070:4087   */\n      add\n        /* \"#utility.yul\":4061:4067   */\n      dup5\n        /* \"#utility.yul\":3969:4088   */\n      tag_68\n      jump\t// in\n    tag_119:\n        /* \"#utility.yul\":3776:4095   */\n      swap3\n      swap2\n      pop\n      pop\n      jump\t// out\n        /* \"#utility.yul\":4101:4219   */\n    tag_69:\n        /* \"#utility.yul\":4188:4212   */\n      tag_121\n        /* \"#utility.yul\":4206:4211   */\n      dup2\n        /* \"#utility.yul\":4188:4212   */\n      tag_58\n      jump\t// in\n    tag_121:\n        /* \"#utility.yul\":4183:4186   */\n      dup3\n        /* \"#utility.yul\":4176:4213   */\n      mstore\n        /* \"#utility.yul\":4101:4219   */\n      pop\n      pop\n      jump\t// out\n        /* \"#utility.yul\":4225:4343   */\n    tag_70:\n        /* \"#utility.yul\":4312:4336   */\n      tag_123\n        /* \"#utility.yul\":4330:4335   */\n      dup2\n        /* \"#utility.yul\":4312:4336   */\n      tag_61\n      jump\t// in\n    tag_123:\n        /* \"#utility.yul\":4307:4310   */\n      dup3\n        /* \"#utility.yul\":4300:4337   */\n      mstore\n        /* \"#utility.yul\":4225:4343   */\n      pop\n      pop\n      jump\t// out\n        /* \"#utility.yul\":4349:4517   */\n    tag_71:\n        /* \"#utility.yul\":4432:4443   */\n      0x00\n        /* \"#utility.yul\":4466:4472   */\n      dup3\n        /* \"#utility.yul\":4461:4464   */\n      dup3\n        /* \"#utility.yul\":4454:4473   */\n      mstore\n        /* \"#utility.yul\":4506:4510   */\n      0x20\n        /* \"#utility.yul\":4501:4504   */\n      dup3\n        /* \"#utility.yul\":4497:4511   */\n      add\n        /* \"#utility.yul\":4482:4511   */\n      swap1\n      pop\n        /* \"#utility.yul\":4349:4517   */\n      swap3\n      swap2\n      pop\n      pop\n      jump\t// out\n        /* \"#utility.yul\":4523:4637   */\n    tag_72:\n      pop\n      jump\t// out\n        /* \"#utility.yul\":4643:5005   */\n    tag_73:\n        /* \"#utility.yul\":4784:4787   */\n      0x00\n        /* \"#utility.yul\":4805:4870   */\n      tag_127\n        /* \"#utility.yul\":4868:4869   */\n      0x00\n        /* \"#utility.yul\":4863:4866   */\n      dup4\n        /* \"#utility.yul\":4805:4870   */\n      tag_71\n      jump\t// in\n    tag_127:\n        /* \"#utility.yul\":4798:4870   */\n      swap2\n      pop\n        /* \"#utility.yul\":4879:4972   */\n      tag_128\n        /* \"#utility.yul\":4968:4971   */\n      dup3\n        /* \"#utility.yul\":4879:4972   */\n      tag_72\n      jump\t// in\n    tag_128:\n        /* \"#utility.yul\":4997:4998   */\n      0x00\n        /* \"#utility.yul\":4992:4995   */\n      dup3\n        /* \"#utility.yul\":4988:4999   */\n      add\n        /* \"#utility.yul\":4981:4999   */\n      swap1\n      pop\n        /* \"#utility.yul\":4643:5005   */\n      swap2\n      swap1\n      pop\n      jump\t// out\n        /* \"#utility.yul\":5011:5759   */\n    tag_25:\n        /* \"#utility.yul\":5260:5264   */\n      0x00\n        /* \"#utility.yul\":5298:5301   */\n      0x80\n        /* \"#utility.yul\":5287:5296   */\n      dup3\n        /* \"#utility.yul\":5283:5302   */\n      add\n        /* \"#utility.yul\":5275:5302   */\n      swap1\n      pop\n        /* \"#utility.yul\":5312:5383   */\n      tag_130\n        /* \"#utility.yul\":5380:5381   */\n      0x00\n        /* \"#utility.yul\":5369:5378   */\n      dup4\n        /* \"#utility.yul\":5365:5382   */\n      add\n        /* \"#utility.yul\":5356:5362   */\n      dup7\n        /* \"#utility.yul\":5312:5383   */\n      tag_69\n      jump\t// in\n    tag_130:\n        /* \"#utility.yul\":5393:5465   */\n      tag_131\n        /* \"#utility.yul\":5461:5463   */\n      0x20\n        /* \"#utility.yul\":5450:5459   */\n      dup4\n        /* \"#utility.yul\":5446:5464   */\n      add\n        /* \"#utility.yul\":5437:5443   */\n      dup6\n        /* \"#utility.yul\":5393:5465   */\n      tag_69\n      jump\t// in\n    tag_131:\n        /* \"#utility.yul\":5475:5547   */\n      tag_132\n        /* \"#utility.yul\":5543:5545   */\n      0x40\n        /* \"#utility.yul\":5532:5541   */\n      dup4\n        /* \"#utility.yul\":5528:5546   */\n      add\n        /* \"#utility.yul\":5519:5525   */\n      dup5\n        /* \"#utility.yul\":5475:5547   */\n      tag_70\n      jump\t// in\n    tag_132:\n        /* \"#utility.yul\":5594:5603   */\n      dup2\n        /* \"#utility.yul\":5588:5592   */\n      dup2\n        /* \"#utility.yul\":5584:5604   */\n      sub\n        /* \"#utility.yul\":5579:5581   */\n      0x60\n        /* \"#utility.yul\":5568:5577   */\n      dup4\n        /* \"#utility.yul\":5564:5582   */\n      add\n        /* \"#utility.yul\":5557:5605   */\n      mstore\n        /* \"#utility.yul\":5622:5752   */\n      tag_133\n        /* \"#utility.yul\":5747:5751   */\n      dup2\n        /* \"#utility.yul\":5622:5752   */\n      tag_73\n      jump\t// in\n    tag_133:\n        /* \"#utility.yul\":5614:5752   */\n      swap1\n      pop\n        /* \"#utility.yul\":5011:5759   */\n      swap5\n      swap4\n      pop\n      pop\n      pop\n      pop\n      jump\t// out\n        /* \"#utility.yul\":5765:6097   */\n    tag_30:\n        /* \"#utility.yul\":5886:5890   */\n      0x00\n        /* \"#utility.yul\":5924:5926   */\n      0x40\n        /* \"#utility.yul\":5913:5922   */\n      dup3\n        /* \"#utility.yul\":5909:5927   */\n      add\n        /* \"#utility.yul\":5901:5927   */\n      swap1\n      pop\n        /* \"#utility.yul\":5937:6008   */\n      tag_135\n        /* \"#utility.yul\":6005:6006   */\n      0x00\n        /* \"#utility.yul\":5994:6003   */\n      dup4\n        /* \"#utility.yul\":5990:6007   */\n      add\n        /* \"#utility.yul\":5981:5987   */\n      dup6\n        /* \"#utility.yul\":5937:6008   */\n      tag_70\n      jump\t// in\n    tag_135:\n        /* \"#utility.yul\":6018:6090   */\n      tag_136\n        /* \"#utility.yul\":6086:6088   */\n      0x20\n        /* \"#utility.yul\":6075:6084   */\n      dup4\n        /* \"#utility.yul\":6071:6089   */\n      add\n        /* \"#utility.yul\":6062:6068   */\n      dup5\n        /* \"#utility.yul\":6018:6090   */\n      tag_69\n      jump\t// in\n    tag_136:\n        /* \"#utility.yul\":5765:6097   */\n      swap4\n      swap3\n      pop\n      pop\n      pop\n      jump\t// out\n        /* \"#utility.yul\":6103:6435   */\n    tag_35:\n        /* \"#utility.yul\":6224:6228   */\n      0x00\n        /* \"#utility.yul\":6262:6264   */\n      0x40\n        /* \"#utility.yul\":6251:6260   */\n      dup3\n        /* \"#utility.yul\":6247:6265   */\n      add\n        /* \"#utility.yul\":6239:6265   */\n      swap1\n      pop\n        /* \"#utility.yul\":6275:6346   */\n      tag_138\n        /* \"#utility.yul\":6343:6344   */\n      0x00\n        /* \"#utility.yul\":6332:6341   */\n      dup4\n        /* \"#utility.yul\":6328:6345   */\n      add\n        /* \"#utility.yul\":6319:6325   */\n      dup6\n        /* \"#utility.yul\":6275:6346   */\n      tag_69\n      jump\t// in\n    tag_138:\n        /* \"#utility.yul\":6356:6428   */\n      tag_139\n        /* \"#utility.yul\":6424:6426   */\n      0x20\n        /* \"#utility.yul\":6413:6422   */\n      dup4\n        /* \"#utility.yul\":6409:6427   */\n      add\n        /* \"#utility.yul\":6400:6406   */\n      dup5\n        /* \"#utility.yul\":6356:6428   */\n      tag_70\n      jump\t// in\n    tag_139:\n        /* \"#utility.yul\":6103:6435   */\n      swap4\n      swap3\n      pop\n      pop\n      pop\n      jump\t// out\n        /* \"#utility.yul\":6441:6883   */\n    tag_44:\n        /* \"#utility.yul\":6590:6594   */\n      0x00\n        /* \"#utility.yul\":6628:6630   */\n      0x60\n        /* \"#utility.yul\":6617:6626   */\n      dup3\n        /* \"#utility.yul\":6613:6631   */\n      add\n        /* \"#utility.yul\":6605:6631   */\n      swap1\n      pop\n        /* \"#utility.yul\":6641:6712   */\n      tag_141\n        /* \"#utility.yul\":6709:6710   */\n      0x00\n        /* \"#utility.yul\":6698:6707   */\n      dup4\n        /* \"#utility.yul\":6694:6711   */\n      add\n        /* \"#utility.yul\":6685:6691   */\n      dup7\n        /* \"#utility.yul\":6641:6712   */\n      tag_69\n      jump\t// in\n    tag_141:\n        /* \"#utility.yul\":6722:6794   */\n      tag_142\n        /* \"#utility.yul\":6790:6792   */\n      0x20\n        /* \"#utility.yul\":6779:6788   */\n      dup4\n        /* \"#utility.yul\":6775:6793   */\n      add\n        /* \"#utility.yul\":6766:6772   */\n      dup6\n        /* \"#utility.yul\":6722:6794   */\n      tag_69\n      jump\t// in\n    tag_142:\n        /* \"#utility.yul\":6804:6876   */\n      tag_143\n        /* \"#utility.yul\":6872:6874   */\n      0x40\n        /* \"#utility.yul\":6861:6870   */\n      dup4\n        /* \"#utility.yul\":6857:6875   */\n      add\n        /* \"#utility.yul\":6848:6854   */\n      dup5\n        /* \"#utility.yul\":6804:6876   */\n      tag_70\n      jump\t// in\n    tag_143:\n        /* \"#utility.yul\":6441:6883   */\n      swap5\n      swap4\n      pop\n      pop\n      pop\n      pop\n      jump\t// out\n        /* \"#utility.yul\":6889:7005   */\n    tag_74:\n        /* \"#utility.yul\":6959:6980   */\n      tag_145\n        /* \"#utility.yul\":6974:6979   */\n      dup2\n        /* \"#utility.yul\":6959:6980   */\n      tag_64\n      jump\t// in\n    tag_145:\n        /* \"#utility.yul\":6952:6957   */\n      dup2\n        /* \"#utility.yul\":6949:6981   */\n      eq\n        /* \"#utility.yul\":6939:6999   */\n      tag_146\n      jumpi\n        /* \"#utility.yul\":6995:6996   */\n      0x00\n        /* \"#utility.yul\":6992:6993   */\n      dup1\n        /* \"#utility.yul\":6985:6997   */\n      revert\n        /* \"#utility.yul\":6939:6999   */\n    tag_146:\n        /* \"#utility.yul\":6889:7005   */\n      pop\n      jump\t// out\n        /* \"#utility.yul\":7011:7148   */\n    tag_75:\n        /* \"#utility.yul\":7065:7070   */\n      0x00\n        /* \"#utility.yul\":7096:7102   */\n      dup2\n        /* \"#utility.yul\":7090:7103   */\n      mload\n        /* \"#utility.yul\":7081:7103   */\n      swap1\n      pop\n        /* \"#utility.yul\":7112:7142   */\n      tag_148\n        /* \"#utility.yul\":7136:7141   */\n      dup2\n        /* \"#utility.yul\":7112:7142   */\n      tag_74\n      jump\t// in\n    tag_148:\n        /* \"#utility.yul\":7011:7148   */\n      swap3\n      swap2\n      pop\n      pop\n      jump\t// out\n        /* \"#utility.yul\":7154:7499   */\n    tag_48:\n        /* \"#utility.yul\":7221:7227   */\n      0x00\n        /* \"#utility.yul\":7270:7272   */\n      0x20\n        /* \"#utility.yul\":7258:7267   */\n      dup3\n        /* \"#utility.yul\":7249:7256   */\n      dup5\n        /* \"#utility.yul\":7245:7268   */\n      sub\n        /* \"#utility.yul\":7241:7273   */\n      slt\n        /* \"#utility.yul\":7238:7357   */\n      iszero\n      tag_150\n      jumpi\n        /* \"#utility.yul\":7276:7355   */\n      tag_151\n      tag_55\n      jump\t// in\n    tag_151:\n        /* \"#utility.yul\":7238:7357   */\n    tag_150:\n        /* \"#utility.yul\":7396:7397   */\n      0x00\n        /* \"#utility.yul\":7421:7482   */\n      tag_152\n        /* \"#utility.yul\":7474:7481   */\n      dup5\n        /* \"#utility.yul\":7465:7471   */\n      dup3\n        /* \"#utility.yul\":7454:7463   */\n      dup6\n        /* \"#utility.yul\":7450:7472   */\n      add\n        /* \"#utility.yul\":7421:7482   */\n      tag_75\n      jump\t// in\n    tag_152:\n        /* \"#utility.yul\":7411:7482   */\n      swap2\n      pop\n        /* \"#utility.yul\":7367:7492   */\n      pop\n        /* \"#utility.yul\":7154:7499   */\n      swap3\n      swap2\n      pop\n      pop\n      jump\t// out\n\n    auxdata: 0xa26469706673582212209125ae193e2ae34cf4c19544735947db1b7e39c874a6ff2bf6b150c032c8c44264736f6c634300081a0033\n}\n",
				"bytecode": {
					"linkReferences": {},
					"object": "6080604052348015600e575f80fd5b50610dcc8061001c5f395ff3fe608060405234801561000f575f80fd5b506004361061004a575f3560e01c80635930a88c1461004e578063632f9b6a1461006a57806388700d1c146100865780639f37092a146100b6575b5f80fd5b61006860048036038101906100639190610adf565b6100d2565b005b610084600480360381019061007f9190610adf565b6102fb565b005b6100a0600480360381019061009b9190610b43565b6104e4565b6040516100ad9190610c0c565b60405180910390f35b6100d060048036038101906100cb9190610b43565b610617565b005b60405180608001604052806001151581526020013373ffffffffffffffffffffffffffffffffffffffff1681526020018381526020018273ffffffffffffffffffffffffffffffffffffffff168152505f808673ffffffffffffffffffffffffffffffffffffffff1673ffffffffffffffffffffffffffffffffffffffff1681526020019081526020015f205f8581526020019081526020015f205f820151815f015f6101000a81548160ff0219169083151502179055506020820151815f0160016101000a81548173ffffffffffffffffffffffffffffffffffffffff021916908373ffffffffffffffffffffffffffffffffffffffff160217905550604082015181600101556060820151816002015f6101000a81548173ffffffffffffffffffffffffffffffffffffffff021916908373ffffffffffffffffffffffffffffffffffffffff1602179055509050508373ffffffffffffffffffffffffffffffffffffffff1663b88d4fde3330866040518463ffffffff1660e01b815260040161026093929190610c76565b5f604051808303815f87803b158015610277575f80fd5b505af1158015610289573d5f803e3d5ffd5b50505050828473ffffffffffffffffffffffffffffffffffffffff163373ffffffffffffffffffffffffffffffffffffffff167f4b3569112f949eb5abccc2f448b8f88b58a6a8d9bc127648ea07a021f964d7a685856040516102ed929190610cbe565b60405180910390a450505050565b5f805f8673ffffffffffffffffffffffffffffffffffffffff1673ffffffffffffffffffffffffffffffffffffffff1681526020019081526020015f205f8581526020019081526020015f2090503373ffffffffffffffffffffffffffffffffffffffff16815f0160019054906101000a900473ffffffffffffffffffffffffffffffffffffffff1673ffffffffffffffffffffffffffffffffffffffff16146103d1576040517f30cd747100000000000000000000000000000000000000000000000000000000815260040160405180910390fd5b5f1515815f015f9054906101000a900460ff1615150361042a5784846040517f6831488c000000000000000000000000000000000000000000000000000000008152600401610421929190610ce5565b60405180910390fd5b82816001018190555081816002015f6101000a81548173ffffffffffffffffffffffffffffffffffffffff021916908373ffffffffffffffffffffffffffffffffffffffff160217905550838573ffffffffffffffffffffffffffffffffffffffff163373ffffffffffffffffffffffffffffffffffffffff167f4b3569112f949eb5abccc2f448b8f88b58a6a8d9bc127648ea07a021f964d7a686866040516104d5929190610cbe565b60405180910390a45050505050565b6104ec6109fc565b5f808473ffffffffffffffffffffffffffffffffffffffff1673ffffffffffffffffffffffffffffffffffffffff1681526020019081526020015f205f8381526020019081526020015f206040518060800160405290815f82015f9054906101000a900460ff161515151581526020015f820160019054906101000a900473ffffffffffffffffffffffffffffffffffffffff1673ffffffffffffffffffffffffffffffffffffffff1673ffffffffffffffffffffffffffffffffffffffff16815260200160018201548152602001600282015f9054906101000a900473ffffffffffffffffffffffffffffffffffffffff1673ffffffffffffffffffffffffffffffffffffffff1673ffffffffffffffffffffffffffffffffffffffff1681525050905092915050565b5f805f8473ffffffffffffffffffffffffffffffffffffffff1673ffffffffffffffffffffffffffffffffffffffff1681526020019081526020015f205f8381526020019081526020015f206040518060800160405290815f82015f9054906101000a900460ff161515151581526020015f820160019054906101000a900473ffffffffffffffffffffffffffffffffffffffff1673ffffffffffffffffffffffffffffffffffffffff1673ffffffffffffffffffffffffffffffffffffffff16815260200160018201548152602001600282015f9054906101000a900473ffffffffffffffffffffffffffffffffffffffff1673ffffffffffffffffffffffffffffffffffffffff1673ffffffffffffffffffffffffffffffffffffffff168152505090505f15155f808573ffffffffffffffffffffffffffffffffffffffff1673ffffffffffffffffffffffffffffffffffffffff1681526020019081526020015f205f8481526020019081526020015f205f015f9054906101000a900460ff161515036107e05782826040517f6831488c0000000000000000000000000000000000000000000000000000000081526004016107d7929190610ce5565b60405180910390fd5b806060015173ffffffffffffffffffffffffffffffffffffffff166323b872dd33836020015184604001516040518463ffffffff1660e01b815260040161082993929190610d0c565b6020604051808303815f875af1158015610845573d5f803e3d5ffd5b505050506040513d601f19601f820116820180604052508101906108699190610d6b565b508273ffffffffffffffffffffffffffffffffffffffff166323b872dd3033856040518463ffffffff1660e01b81526004016108a793929190610d0c565b5f604051808303815f87803b1580156108be575f80fd5b505af11580156108d0573d5f803e3d5ffd5b505050505f808473ffffffffffffffffffffffffffffffffffffffff1673ffffffffffffffffffffffffffffffffffffffff1681526020019081526020015f205f8381526020019081526020015f205f8082015f6101000a81549060ff02191690555f820160016101000a81549073ffffffffffffffffffffffffffffffffffffffff0219169055600182015f9055600282015f6101000a81549073ffffffffffffffffffffffffffffffffffffffff02191690555050818373ffffffffffffffffffffffffffffffffffffffff163373ffffffffffffffffffffffffffffffffffffffff167fb6cb1aca667c257d2d8541b104eae07a4e749c66bbb2ca67a2cec1b07db7c4f1846040015185606001516040516109ef929190610cbe565b60405180910390a4505050565b60405180608001604052805f151581526020015f73ffffffffffffffffffffffffffffffffffffffff1681526020015f81526020015f73ffffffffffffffffffffffffffffffffffffffff1681525090565b5f80fd5b5f73ffffffffffffffffffffffffffffffffffffffff82169050919050565b5f610a7b82610a52565b9050919050565b610a8b81610a71565b8114610a95575f80fd5b50565b5f81359050610aa681610a82565b92915050565b5f819050919050565b610abe81610aac565b8114610ac8575f80fd5b50565b5f81359050610ad981610ab5565b92915050565b5f805f8060808587031215610af757610af6610a4e565b5b5f610b0487828801610a98565b9450506020610b1587828801610acb565b9350506040610b2687828801610acb565b9250506060610b3787828801610a98565b91505092959194509250565b5f8060408385031215610b5957610b58610a4e565b5b5f610b6685828601610a98565b9250506020610b7785828601610acb565b9150509250929050565b5f8115159050919050565b610b9581610b81565b82525050565b610ba481610a71565b82525050565b610bb381610aac565b82525050565b608082015f820151610bcd5f850182610b8c565b506020820151610be06020850182610b9b565b506040820151610bf36040850182610baa565b506060820151610c066060850182610b9b565b50505050565b5f608082019050610c1f5f830184610bb9565b92915050565b610c2e81610a71565b82525050565b610c3d81610aac565b82525050565b5f82825260208201905092915050565b50565b5f610c615f83610c43565b9150610c6c82610c53565b5f82019050919050565b5f608082019050610c895f830186610c25565b610c966020830185610c25565b610ca36040830184610c34565b8181036060830152610cb481610c56565b9050949350505050565b5f604082019050610cd15f830185610c34565b610cde6020830184610c25565b9392505050565b5f604082019050610cf85f830185610c25565b610d056020830184610c34565b9392505050565b5f606082019050610d1f5f830186610c25565b610d2c6020830185610c25565b610d396040830184610c34565b949350505050565b610d4a81610b81565b8114610d54575f80fd5b50565b5f81519050610d6581610d41565b92915050565b5f60208284031215610d8057610d7f610a4e565b5b5f610d8d84828501610d57565b9150509291505056fea26469706673582212209125ae193e2ae34cf4c19544735947db1b7e39c874a6ff2bf6b150c032c8c44264736f6c634300081a0033",
					"opcodes": "PUSH1 0x80 PUSH1 0x40 MSTORE CALLVALUE DUP1 ISZERO PUSH1 0xE JUMPI PUSH0 DUP1 REVERT JUMPDEST POP PUSH2 0xDCC DUP1 PUSH2 0x1C PUSH0 CODECOPY PUSH0 RETURN INVALID PUSH1 0x80 PUSH1 0x40 MSTORE CALLVALUE DUP1 ISZERO PUSH2 0xF JUMPI PUSH0 DUP1 REVERT JUMPDEST POP PUSH1 0x4 CALLDATASIZE LT PUSH2 0x4A JUMPI PUSH0 CALLDATALOAD PUSH1 0xE0 SHR DUP1 PUSH4 0x5930A88C EQ PUSH2 0x4E JUMPI DUP1 PUSH4 0x632F9B6A EQ PUSH2 0x6A JUMPI DUP1 PUSH4 0x88700D1C EQ PUSH2 0x86 JUMPI DUP1 PUSH4 0x9F37092A EQ PUSH2 0xB6 JUMPI JUMPDEST PUSH0 DUP1 REVERT JUMPDEST PUSH2 0x68 PUSH1 0x4 DUP1 CALLDATASIZE SUB DUP2 ADD SWAP1 PUSH2 0x63 SWAP2 SWAP1 PUSH2 0xADF JUMP JUMPDEST PUSH2 0xD2 JUMP JUMPDEST STOP JUMPDEST PUSH2 0x84 PUSH1 0x4 DUP1 CALLDATASIZE SUB DUP2 ADD SWAP1 PUSH2 0x7F SWAP2 SWAP1 PUSH2 0xADF JUMP JUMPDEST PUSH2 0x2FB JUMP JUMPDEST STOP JUMPDEST PUSH2 0xA0 PUSH1 0x4 DUP1 CALLDATASIZE SUB DUP2 ADD SWAP1 PUSH2 0x9B SWAP2 SWAP1 PUSH2 0xB43 JUMP JUMPDEST PUSH2 0x4E4 JUMP JUMPDEST PUSH1 0x40 MLOAD PUSH2 0xAD SWAP2 SWAP1 PUSH2 0xC0C JUMP JUMPDEST PUSH1 0x40 MLOAD DUP1 SWAP2 SUB SWAP1 RETURN JUMPDEST PUSH2 0xD0 PUSH1 0x4 DUP1 CALLDATASIZE SUB DUP2 ADD SWAP1 PUSH2 0xCB SWAP2 SWAP1 PUSH2 0xB43 JUMP JUMPDEST PUSH2 0x617 JUMP JUMPDEST STOP JUMPDEST PUSH1 0x40 MLOAD DUP1 PUSH1 0x80 ADD PUSH1 0x40 MSTORE DUP1 PUSH1 0x1 ISZERO ISZERO DUP2 MSTORE PUSH1 0x20 ADD CALLER PUSH20 0xFFFFFFFFFFFFFFFFFFFFFFFFFFFFFFFFFFFFFFFF AND DUP2 MSTORE PUSH1 0x20 ADD DUP4 DUP2 MSTORE PUSH1 0x20 ADD DUP3 PUSH20 0xFFFFFFFFFFFFFFFFFFFFFFFFFFFFFFFFFFFFFFFF AND DUP2 MSTORE POP PUSH0 DUP1 DUP7 PUSH20 0xFFFFFFFFFFFFFFFFFFFFFFFFFFFFFFFFFFFFFFFF AND PUSH20 0xFFFFFFFFFFFFFFFFFFFFFFFFFFFFFFFFFFFFFFFF AND DUP2 MSTORE PUSH1 0x20 ADD SWAP1 DUP2 MSTORE PUSH1 0x20 ADD PUSH0 KECCAK256 PUSH0 DUP6 DUP2 MSTORE PUSH1 0x20 ADD SWAP1 DUP2 MSTORE PUSH1 0x20 ADD PUSH0 KECCAK256 PUSH0 DUP3 ADD MLOAD DUP2 PUSH0 ADD PUSH0 PUSH2 0x100 EXP DUP2 SLOAD DUP2 PUSH1 0xFF MUL NOT AND SWAP1 DUP4 ISZERO ISZERO MUL OR SWAP1 SSTORE POP PUSH1 0x20 DUP3 ADD MLOAD DUP2 PUSH0 ADD PUSH1 0x1 PUSH2 0x100 EXP DUP2 SLOAD DUP2 PUSH20 0xFFFFFFFFFFFFFFFFFFFFFFFFFFFFFFFFFFFFFFFF MUL NOT AND SWAP1 DUP4 PUSH20 0xFFFFFFFFFFFFFFFFFFFFFFFFFFFFFFFFFFFFFFFF AND MUL OR SWAP1 SSTORE POP PUSH1 0x40 DUP3 ADD MLOAD DUP2 PUSH1 0x1 ADD SSTORE PUSH1 0x60 DUP3 ADD MLOAD DUP2 PUSH1 0x2 ADD PUSH0 PUSH2 0x100 EXP DUP2 SLOAD DUP2 PUSH20 0xFFFFFFFFFFFFFFFFFFFFFFFFFFFFFFFFFFFFFFFF MUL NOT AND SWAP1 DUP4 PUSH20 0xFFFFFFFFFFFFFFFFFFFFFFFFFFFFFFFFFFFFFFFF AND MUL OR SWAP1 SSTORE POP SWAP1 POP POP DUP4 PUSH20 0xFFFFFFFFFFFFFFFFFFFFFFFFFFFFFFFFFFFFFFFF AND PUSH4 0xB88D4FDE CALLER ADDRESS DUP7 PUSH1 0x40 MLOAD DUP5 PUSH4 0xFFFFFFFF AND PUSH1 0xE0 SHL DUP2 MSTORE PUSH1 0x4 ADD PUSH2 0x260 SWAP4 SWAP3 SWAP2 SWAP1 PUSH2 0xC76 JUMP JUMPDEST PUSH0 PUSH1 0x40 MLOAD DUP1 DUP4 SUB DUP2 PUSH0 DUP8 DUP1 EXTCODESIZE ISZERO DUP1 ISZERO PUSH2 0x277 JUMPI PUSH0 DUP1 REVERT JUMPDEST POP GAS CALL ISZERO DUP1 ISZERO PUSH2 0x289 JUMPI RETURNDATASIZE PUSH0 DUP1 RETURNDATACOPY RETURNDATASIZE PUSH0 REVERT JUMPDEST POP POP POP POP DUP3 DUP5 PUSH20 0xFFFFFFFFFFFFFFFFFFFFFFFFFFFFFFFFFFFFFFFF AND CALLER PUSH20 0xFFFFFFFFFFFFFFFFFFFFFFFFFFFFFFFFFFFFFFFF AND PUSH32 0x4B3569112F949EB5ABCCC2F448B8F88B58A6A8D9BC127648EA07A021F964D7A6 DUP6 DUP6 PUSH1 0x40 MLOAD PUSH2 0x2ED SWAP3 SWAP2 SWAP1 PUSH2 0xCBE JUMP JUMPDEST PUSH1 0x40 MLOAD DUP1 SWAP2 SUB SWAP1 LOG4 POP POP POP POP JUMP JUMPDEST PUSH0 DUP1 PUSH0 DUP7 PUSH20 0xFFFFFFFFFFFFFFFFFFFFFFFFFFFFFFFFFFFFFFFF AND PUSH20 0xFFFFFFFFFFFFFFFFFFFFFFFFFFFFFFFFFFFFFFFF AND DUP2 MSTORE PUSH1 0x20 ADD SWAP1 DUP2 MSTORE PUSH1 0x20 ADD PUSH0 KECCAK256 PUSH0 DUP6 DUP2 MSTORE PUSH1 0x20 ADD SWAP1 DUP2 MSTORE PUSH1 0x20 ADD PUSH0 KECCAK256 SWAP1 POP CALLER PUSH20 0xFFFFFFFFFFFFFFFFFFFFFFFFFFFFFFFFFFFFFFFF AND DUP2 PUSH0 ADD PUSH1 0x1 SWAP1 SLOAD SWAP1 PUSH2 0x100 EXP SWAP1 DIV PUSH20 0xFFFFFFFFFFFFFFFFFFFFFFFFFFFFFFFFFFFFFFFF AND PUSH20 0xFFFFFFFFFFFFFFFFFFFFFFFFFFFFFFFFFFFFFFFF AND EQ PUSH2 0x3D1 JUMPI PUSH1 0x40 MLOAD PUSH32 0x30CD747100000000000000000000000000000000000000000000000000000000 DUP2 MSTORE PUSH1 0x4 ADD PUSH1 0x40 MLOAD DUP1 SWAP2 SUB SWAP1 REVERT JUMPDEST PUSH0 ISZERO ISZERO DUP2 PUSH0 ADD PUSH0 SWAP1 SLOAD SWAP1 PUSH2 0x100 EXP SWAP1 DIV PUSH1 0xFF AND ISZERO ISZERO SUB PUSH2 0x42A JUMPI DUP5 DUP5 PUSH1 0x40 MLOAD PUSH32 0x6831488C00000000000000000000000000000000000000000000000000000000 DUP2 MSTORE PUSH1 0x4 ADD PUSH2 0x421 SWAP3 SWAP2 SWAP1 PUSH2 0xCE5 JUMP JUMPDEST PUSH1 0x40 MLOAD DUP1 SWAP2 SUB SWAP1 REVERT JUMPDEST DUP3 DUP2 PUSH1 0x1 ADD DUP2 SWAP1 SSTORE POP DUP2 DUP2 PUSH1 0x2 ADD PUSH0 PUSH2 0x100 EXP DUP2 SLOAD DUP2 PUSH20 0xFFFFFFFFFFFFFFFFFFFFFFFFFFFFFFFFFFFFFFFF MUL NOT AND SWAP1 DUP4 PUSH20 0xFFFFFFFFFFFFFFFFFFFFFFFFFFFFFFFFFFFFFFFF AND MUL OR SWAP1 SSTORE POP DUP4 DUP6 PUSH20 0xFFFFFFFFFFFFFFFFFFFFFFFFFFFFFFFFFFFFFFFF AND CALLER PUSH20 0xFFFFFFFFFFFFFFFFFFFFFFFFFFFFFFFFFFFFFFFF AND PUSH32 0x4B3569112F949EB5ABCCC2F448B8F88B58A6A8D9BC127648EA07A021F964D7A6 DUP7 DUP7 PUSH1 0x40 MLOAD PUSH2 0x4D5 SWAP3 SWAP2 SWAP1 PUSH2 0xCBE JUMP JUMPDEST PUSH1 0x40 MLOAD DUP1 SWAP2 SUB SWAP1 LOG4 POP POP POP POP POP JUMP JUMPDEST PUSH2 0x4EC PUSH2 0x9FC JUMP JUMPDEST PUSH0 DUP1 DUP5 PUSH20 0xFFFFFFFFFFFFFFFFFFFFFFFFFFFFFFFFFFFFFFFF AND PUSH20 0xFFFFFFFFFFFFFFFFFFFFFFFFFFFFFFFFFFFFFFFF AND DUP2 MSTORE PUSH1 0x20 ADD SWAP1 DUP2 MSTORE PUSH1 0x20 ADD PUSH0 KECCAK256 PUSH0 DUP4 DUP2 MSTORE PUSH1 0x20 ADD SWAP1 DUP2 MSTORE PUSH1 0x20 ADD PUSH0 KECCAK256 PUSH1 0x40 MLOAD DUP1 PUSH1 0x80 ADD PUSH1 0x40 MSTORE SWAP1 DUP2 PUSH0 DUP3 ADD PUSH0 SWAP1 SLOAD SWAP1 PUSH2 0x100 EXP SWAP1 DIV PUSH1 0xFF AND ISZERO ISZERO ISZERO ISZERO DUP2 MSTORE PUSH1 0x20 ADD PUSH0 DUP3 ADD PUSH1 0x1 SWAP1 SLOAD SWAP1 PUSH2 0x100 EXP SWAP1 DIV PUSH20 0xFFFFFFFFFFFFFFFFFFFFFFFFFFFFFFFFFFFFFFFF AND PUSH20 0xFFFFFFFFFFFFFFFFFFFFFFFFFFFFFFFFFFFFFFFF AND PUSH20 0xFFFFFFFFFFFFFFFFFFFFFFFFFFFFFFFFFFFFFFFF AND DUP2 MSTORE PUSH1 0x20 ADD PUSH1 0x1 DUP3 ADD SLOAD DUP2 MSTORE PUSH1 0x20 ADD PUSH1 0x2 DUP3 ADD PUSH0 SWAP1 SLOAD SWAP1 PUSH2 0x100 EXP SWAP1 DIV PUSH20 0xFFFFFFFFFFFFFFFFFFFFFFFFFFFFFFFFFFFFFFFF AND PUSH20 0xFFFFFFFFFFFFFFFFFFFFFFFFFFFFFFFFFFFFFFFF AND PUSH20 0xFFFFFFFFFFFFFFFFFFFFFFFFFFFFFFFFFFFFFFFF AND DUP2 MSTORE POP POP SWAP1 POP SWAP3 SWAP2 POP POP JUMP JUMPDEST PUSH0 DUP1 PUSH0 DUP5 PUSH20 0xFFFFFFFFFFFFFFFFFFFFFFFFFFFFFFFFFFFFFFFF AND PUSH20 0xFFFFFFFFFFFFFFFFFFFFFFFFFFFFFFFFFFFFFFFF AND DUP2 MSTORE PUSH1 0x20 ADD SWAP1 DUP2 MSTORE PUSH1 0x20 ADD PUSH0 KECCAK256 PUSH0 DUP4 DUP2 MSTORE PUSH1 0x20 ADD SWAP1 DUP2 MSTORE PUSH1 0x20 ADD PUSH0 KECCAK256 PUSH1 0x40 MLOAD DUP1 PUSH1 0x80 ADD PUSH1 0x40 MSTORE SWAP1 DUP2 PUSH0 DUP3 ADD PUSH0 SWAP1 SLOAD SWAP1 PUSH2 0x100 EXP SWAP1 DIV PUSH1 0xFF AND ISZERO ISZERO ISZERO ISZERO DUP2 MSTORE PUSH1 0x20 ADD PUSH0 DUP3 ADD PUSH1 0x1 SWAP1 SLOAD SWAP1 PUSH2 0x100 EXP SWAP1 DIV PUSH20 0xFFFFFFFFFFFFFFFFFFFFFFFFFFFFFFFFFFFFFFFF AND PUSH20 0xFFFFFFFFFFFFFFFFFFFFFFFFFFFFFFFFFFFFFFFF AND PUSH20 0xFFFFFFFFFFFFFFFFFFFFFFFFFFFFFFFFFFFFFFFF AND DUP2 MSTORE PUSH1 0x20 ADD PUSH1 0x1 DUP3 ADD SLOAD DUP2 MSTORE PUSH1 0x20 ADD PUSH1 0x2 DUP3 ADD PUSH0 SWAP1 SLOAD SWAP1 PUSH2 0x100 EXP SWAP1 DIV PUSH20 0xFFFFFFFFFFFFFFFFFFFFFFFFFFFFFFFFFFFFFFFF AND PUSH20 0xFFFFFFFFFFFFFFFFFFFFFFFFFFFFFFFFFFFFFFFF AND PUSH20 0xFFFFFFFFFFFFFFFFFFFFFFFFFFFFFFFFFFFFFFFF AND DUP2 MSTORE POP POP SWAP1 POP PUSH0 ISZERO ISZERO PUSH0 DUP1 DUP6 PUSH20 0xFFFFFFFFFFFFFFFFFFFFFFFFFFFFFFFFFFFFFFFF AND PUSH20 0xFFFFFFFFFFFFFFFFFFFFFFFFFFFFFFFFFFFFFFFF AND DUP2 MSTORE PUSH1 0x20 ADD SWAP1 DUP2 MSTORE PUSH1 0x20 ADD PUSH0 KECCAK256 PUSH0 DUP5 DUP2 MSTORE PUSH1 0x20 ADD SWAP1 DUP2 MSTORE PUSH1 0x20 ADD PUSH0 KECCAK256 PUSH0 ADD PUSH0 SWAP1 SLOAD SWAP1 PUSH2 0x100 EXP SWAP1 DIV PUSH1 0xFF AND ISZERO ISZERO SUB PUSH2 0x7E0 JUMPI DUP3 DUP3 PUSH1 0x40 MLOAD PUSH32 0x6831488C00000000000000000000000000000000000000000000000000000000 DUP2 MSTORE PUSH1 0x4 ADD PUSH2 0x7D7 SWAP3 SWAP2 SWAP1 PUSH2 0xCE5 JUMP JUMPDEST PUSH1 0x40 MLOAD DUP1 SWAP2 SUB SWAP1 REVERT JUMPDEST DUP1 PUSH1 0x60 ADD MLOAD PUSH20 0xFFFFFFFFFFFFFFFFFFFFFFFFFFFFFFFFFFFFFFFF AND PUSH4 0x23B872DD CALLER DUP4 PUSH1 0x20 ADD MLOAD DUP5 PUSH1 0x40 ADD MLOAD PUSH1 0x40 MLOAD DUP5 PUSH4 0xFFFFFFFF AND PUSH1 0xE0 SHL DUP2 MSTORE PUSH1 0x4 ADD PUSH2 0x829 SWAP4 SWAP3 SWAP2 SWAP1 PUSH2 0xD0C JUMP JUMPDEST PUSH1 0x20 PUSH1 0x40 MLOAD DUP1 DUP4 SUB DUP2 PUSH0 DUP8 GAS CALL ISZERO DUP1 ISZERO PUSH2 0x845 JUMPI RETURNDATASIZE PUSH0 DUP1 RETURNDATACOPY RETURNDATASIZE PUSH0 REVERT JUMPDEST POP POP POP POP PUSH1 0x40 MLOAD RETURNDATASIZE PUSH1 0x1F NOT PUSH1 0x1F DUP3 ADD AND DUP3 ADD DUP1 PUSH1 0x40 MSTORE POP DUP2 ADD SWAP1 PUSH2 0x869 SWAP2 SWAP1 PUSH2 0xD6B JUMP JUMPDEST POP DUP3 PUSH20 0xFFFFFFFFFFFFFFFFFFFFFFFFFFFFFFFFFFFFFFFF AND PUSH4 0x23B872DD ADDRESS CALLER DUP6 PUSH1 0x40 MLOAD DUP5 PUSH4 0xFFFFFFFF AND PUSH1 0xE0 SHL DUP2 MSTORE PUSH1 0x4 ADD PUSH2 0x8A7 SWAP4 SWAP3 SWAP2 SWAP1 PUSH2 0xD0C JUMP JUMPDEST PUSH0 PUSH1 0x40 MLOAD DUP1 DUP4 SUB DUP2 PUSH0 DUP8 DUP1 EXTCODESIZE ISZERO DUP1 ISZERO PUSH2 0x8BE JUMPI PUSH0 DUP1 REVERT JUMPDEST POP GAS CALL ISZERO DUP1 ISZERO PUSH2 0x8D0 JUMPI RETURNDATASIZE PUSH0 DUP1 RETURNDATACOPY RETURNDATASIZE PUSH0 REVERT JUMPDEST POP POP POP POP PUSH0 DUP1 DUP5 PUSH20 0xFFFFFFFFFFFFFFFFFFFFFFFFFFFFFFFFFFFFFFFF AND PUSH20 0xFFFFFFFFFFFFFFFFFFFFFFFFFFFFFFFFFFFFFFFF AND DUP2 MSTORE PUSH1 0x20 ADD SWAP1 DUP2 MSTORE PUSH1 0x20 ADD PUSH0 KECCAK256 PUSH0 DUP4 DUP2 MSTORE PUSH1 0x20 ADD SWAP1 DUP2 MSTORE PUSH1 0x20 ADD PUSH0 KECCAK256 PUSH0 DUP1 DUP3 ADD PUSH0 PUSH2 0x100 EXP DUP2 SLOAD SWAP1 PUSH1 0xFF MUL NOT AND SWAP1 SSTORE PUSH0 DUP3 ADD PUSH1 0x1 PUSH2 0x100 EXP DUP2 SLOAD SWAP1 PUSH20 0xFFFFFFFFFFFFFFFFFFFFFFFFFFFFFFFFFFFFFFFF MUL NOT AND SWAP1 SSTORE PUSH1 0x1 DUP3 ADD PUSH0 SWAP1 SSTORE PUSH1 0x2 DUP3 ADD PUSH0 PUSH2 0x100 EXP DUP2 SLOAD SWAP1 PUSH20 0xFFFFFFFFFFFFFFFFFFFFFFFFFFFFFFFFFFFFFFFF MUL NOT AND SWAP1 SSTORE POP POP DUP2 DUP4 PUSH20 0xFFFFFFFFFFFFFFFFFFFFFFFFFFFFFFFFFFFFFFFF AND CALLER PUSH20 0xFFFFFFFFFFFFFFFFFFFFFFFFFFFFFFFFFFFFFFFF AND PUSH32 0xB6CB1ACA667C257D2D8541B104EAE07A4E749C66BBB2CA67A2CEC1B07DB7C4F1 DUP5 PUSH1 0x40 ADD MLOAD DUP6 PUSH1 0x60 ADD MLOAD PUSH1 0x40 MLOAD PUSH2 0x9EF SWAP3 SWAP2 SWAP1 PUSH2 0xCBE JUMP JUMPDEST PUSH1 0x40 MLOAD DUP1 SWAP2 SUB SWAP1 LOG4 POP POP POP JUMP JUMPDEST PUSH1 0x40 MLOAD DUP1 PUSH1 0x80 ADD PUSH1 0x40 MSTORE DUP1 PUSH0 ISZERO ISZERO DUP2 MSTORE PUSH1 0x20 ADD PUSH0 PUSH20 0xFFFFFFFFFFFFFFFFFFFFFFFFFFFFFFFFFFFFFFFF AND DUP2 MSTORE PUSH1 0x20 ADD PUSH0 DUP2 MSTORE PUSH1 0x20 ADD PUSH0 PUSH20 0xFFFFFFFFFFFFFFFFFFFFFFFFFFFFFFFFFFFFFFFF AND DUP2 MSTORE POP SWAP1 JUMP JUMPDEST PUSH0 DUP1 REVERT JUMPDEST PUSH0 PUSH20 0xFFFFFFFFFFFFFFFFFFFFFFFFFFFFFFFFFFFFFFFF DUP3 AND SWAP1 POP SWAP2 SWAP1 POP JUMP JUMPDEST PUSH0 PUSH2 0xA7B DUP3 PUSH2 0xA52 JUMP JUMPDEST SWAP1 POP SWAP2 SWAP1 POP JUMP JUMPDEST PUSH2 0xA8B DUP2 PUSH2 0xA71 JUMP JUMPDEST DUP2 EQ PUSH2 0xA95 JUMPI PUSH0 DUP1 REVERT JUMPDEST POP JUMP JUMPDEST PUSH0 DUP2 CALLDATALOAD SWAP1 POP PUSH2 0xAA6 DUP2 PUSH2 0xA82 JUMP JUMPDEST SWAP3 SWAP2 POP POP JUMP JUMPDEST PUSH0 DUP2 SWAP1 POP SWAP2 SWAP1 POP JUMP JUMPDEST PUSH2 0xABE DUP2 PUSH2 0xAAC JUMP JUMPDEST DUP2 EQ PUSH2 0xAC8 JUMPI PUSH0 DUP1 REVERT JUMPDEST POP JUMP JUMPDEST PUSH0 DUP2 CALLDATALOAD SWAP1 POP PUSH2 0xAD9 DUP2 PUSH2 0xAB5 JUMP JUMPDEST SWAP3 SWAP2 POP POP JUMP JUMPDEST PUSH0 DUP1 PUSH0 DUP1 PUSH1 0x80 DUP6 DUP8 SUB SLT ISZERO PUSH2 0xAF7 JUMPI PUSH2 0xAF6 PUSH2 0xA4E JUMP JUMPDEST JUMPDEST PUSH0 PUSH2 0xB04 DUP8 DUP3 DUP9 ADD PUSH2 0xA98 JUMP JUMPDEST SWAP5 POP POP PUSH1 0x20 PUSH2 0xB15 DUP8 DUP3 DUP9 ADD PUSH2 0xACB JUMP JUMPDEST SWAP4 POP POP PUSH1 0x40 PUSH2 0xB26 DUP8 DUP3 DUP9 ADD PUSH2 0xACB JUMP JUMPDEST SWAP3 POP POP PUSH1 0x60 PUSH2 0xB37 DUP8 DUP3 DUP9 ADD PUSH2 0xA98 JUMP JUMPDEST SWAP2 POP POP SWAP3 SWAP6 SWAP2 SWAP5 POP SWAP3 POP JUMP JUMPDEST PUSH0 DUP1 PUSH1 0x40 DUP4 DUP6 SUB SLT ISZERO PUSH2 0xB59 JUMPI PUSH2 0xB58 PUSH2 0xA4E JUMP JUMPDEST JUMPDEST PUSH0 PUSH2 0xB66 DUP6 DUP3 DUP7 ADD PUSH2 0xA98 JUMP JUMPDEST SWAP3 POP POP PUSH1 0x20 PUSH2 0xB77 DUP6 DUP3 DUP7 ADD PUSH2 0xACB JUMP JUMPDEST SWAP2 POP POP SWAP3 POP SWAP3 SWAP1 POP JUMP JUMPDEST PUSH0 DUP2 ISZERO ISZERO SWAP1 POP SWAP2 SWAP1 POP JUMP JUMPDEST PUSH2 0xB95 DUP2 PUSH2 0xB81 JUMP JUMPDEST DUP3 MSTORE POP POP JUMP JUMPDEST PUSH2 0xBA4 DUP2 PUSH2 0xA71 JUMP JUMPDEST DUP3 MSTORE POP POP JUMP JUMPDEST PUSH2 0xBB3 DUP2 PUSH2 0xAAC JUMP JUMPDEST DUP3 MSTORE POP POP JUMP JUMPDEST PUSH1 0x80 DUP3 ADD PUSH0 DUP3 ADD MLOAD PUSH2 0xBCD PUSH0 DUP6 ADD DUP3 PUSH2 0xB8C JUMP JUMPDEST POP PUSH1 0x20 DUP3 ADD MLOAD PUSH2 0xBE0 PUSH1 0x20 DUP6 ADD DUP3 PUSH2 0xB9B JUMP JUMPDEST POP PUSH1 0x40 DUP3 ADD MLOAD PUSH2 0xBF3 PUSH1 0x40 DUP6 ADD DUP3 PUSH2 0xBAA JUMP JUMPDEST POP PUSH1 0x60 DUP3 ADD MLOAD PUSH2 0xC06 PUSH1 0x60 DUP6 ADD DUP3 PUSH2 0xB9B JUMP JUMPDEST POP POP POP POP JUMP JUMPDEST PUSH0 PUSH1 0x80 DUP3 ADD SWAP1 POP PUSH2 0xC1F PUSH0 DUP4 ADD DUP5 PUSH2 0xBB9 JUMP JUMPDEST SWAP3 SWAP2 POP POP JUMP JUMPDEST PUSH2 0xC2E DUP2 PUSH2 0xA71 JUMP JUMPDEST DUP3 MSTORE POP POP JUMP JUMPDEST PUSH2 0xC3D DUP2 PUSH2 0xAAC JUMP JUMPDEST DUP3 MSTORE POP POP JUMP JUMPDEST PUSH0 DUP3 DUP3 MSTORE PUSH1 0x20 DUP3 ADD SWAP1 POP SWAP3 SWAP2 POP POP JUMP JUMPDEST POP JUMP JUMPDEST PUSH0 PUSH2 0xC61 PUSH0 DUP4 PUSH2 0xC43 JUMP JUMPDEST SWAP2 POP PUSH2 0xC6C DUP3 PUSH2 0xC53 JUMP JUMPDEST PUSH0 DUP3 ADD SWAP1 POP SWAP2 SWAP1 POP JUMP JUMPDEST PUSH0 PUSH1 0x80 DUP3 ADD SWAP1 POP PUSH2 0xC89 PUSH0 DUP4 ADD DUP7 PUSH2 0xC25 JUMP JUMPDEST PUSH2 0xC96 PUSH1 0x20 DUP4 ADD DUP6 PUSH2 0xC25 JUMP JUMPDEST PUSH2 0xCA3 PUSH1 0x40 DUP4 ADD DUP5 PUSH2 0xC34 JUMP JUMPDEST DUP2 DUP2 SUB PUSH1 0x60 DUP4 ADD MSTORE PUSH2 0xCB4 DUP2 PUSH2 0xC56 JUMP JUMPDEST SWAP1 POP SWAP5 SWAP4 POP POP POP POP JUMP JUMPDEST PUSH0 PUSH1 0x40 DUP3 ADD SWAP1 POP PUSH2 0xCD1 PUSH0 DUP4 ADD DUP6 PUSH2 0xC34 JUMP JUMPDEST PUSH2 0xCDE PUSH1 0x20 DUP4 ADD DUP5 PUSH2 0xC25 JUMP JUMPDEST SWAP4 SWAP3 POP POP POP JUMP JUMPDEST PUSH0 PUSH1 0x40 DUP3 ADD SWAP1 POP PUSH2 0xCF8 PUSH0 DUP4 ADD DUP6 PUSH2 0xC25 JUMP JUMPDEST PUSH2 0xD05 PUSH1 0x20 DUP4 ADD DUP5 PUSH2 0xC34 JUMP JUMPDEST SWAP4 SWAP3 POP POP POP JUMP JUMPDEST PUSH0 PUSH1 0x60 DUP3 ADD SWAP1 POP PUSH2 0xD1F PUSH0 DUP4 ADD DUP7 PUSH2 0xC25 JUMP JUMPDEST PUSH2 0xD2C PUSH1 0x20 DUP4 ADD DUP6 PUSH2 0xC25 JUMP JUMPDEST PUSH2 0xD39 PUSH1 0x40 DUP4 ADD DUP5 PUSH2 0xC34 JUMP JUMPDEST SWAP5 SWAP4 POP POP POP POP JUMP JUMPDEST PUSH2 0xD4A DUP2 PUSH2 0xB81 JUMP JUMPDEST DUP2 EQ PUSH2 0xD54 JUMPI PUSH0 DUP1 REVERT JUMPDEST POP JUMP JUMPDEST PUSH0 DUP2 MLOAD SWAP1 POP PUSH2 0xD65 DUP2 PUSH2 0xD41 JUMP JUMPDEST SWAP3 SWAP2 POP POP JUMP JUMPDEST PUSH0 PUSH1 0x20 DUP3 DUP5 SUB SLT ISZERO PUSH2 0xD80 JUMPI PUSH2 0xD7F PUSH2 0xA4E JUMP JUMPDEST JUMPDEST PUSH0 PUSH2 0xD8D DUP5 DUP3 DUP6 ADD PUSH2 0xD57 JUMP JUMPDEST SWAP2 POP POP SWAP3 SWAP2 POP POP JUMP INVALID LOG2 PUSH5 0x6970667358 0x22 SLT KECCAK256 SWAP2 0x25 0xAE NOT RETURNDATACOPY 0x2A 0xE3 0x4C DELEGATECALL 0xC1 SWAP6 PREVRANDAO PUSH20 0x5947DB1B7E39C874A6FF2BF6B150C032C8C44264 PUSH20 0x6F6C634300081A00330000000000000000000000 "
				},
				"gasEstimates": {
					"creation": {
						"codeDepositCost": "706400",
						"executionCost": "739",
						"totalCost": "707139"
					},
					"external": {
						"buyItem(address,uint256)": "infinite",
						"getListing(address,uint256)": "infinite",
						"listItem(address,uint256,uint256,address)": "infinite",
						"updateListing(address,uint256,uint256,address)": "infinite"
					}
				},
				"methodIdentifiers": {
					"buyItem(address,uint256)": "9f37092a",
					"getListing(address,uint256)": "88700d1c",
					"listItem(address,uint256,uint256,address)": "5930a88c",
					"updateListing(address,uint256,uint256,address)": "632f9b6a"
				}
			},
			"storageLayout": {
				"storage": [
					{
						"astId": 268,
						"contract": "contracts/Marketplace.sol:Marketplace",
						"label": "listings",
						"offset": 0,
						"slot": "0",
						"type": "t_mapping(t_address,t_mapping(t_uint256,t_struct(Listing)261_storage))"
					}
				],
				"types": {
					"t_address": {
						"encoding": "inplace",
						"label": "address",
						"numberOfBytes": "20"
					},
					"t_bool": {
						"encoding": "inplace",
						"label": "bool",
						"numberOfBytes": "1"
					},
					"t_mapping(t_address,t_mapping(t_uint256,t_struct(Listing)261_storage))": {
						"encoding": "mapping",
						"key": "t_address",
						"label": "mapping(address => mapping(uint256 => struct Listing))",
						"numberOfBytes": "32",
						"value": "t_mapping(t_uint256,t_struct(Listing)261_storage)"
					},
					"t_mapping(t_uint256,t_struct(Listing)261_storage)": {
						"encoding": "mapping",
						"key": "t_uint256",
						"label": "mapping(uint256 => struct Listing)",
						"numberOfBytes": "32",
						"value": "t_struct(Listing)261_storage"
					},
					"t_struct(Listing)261_storage": {
						"encoding": "inplace",
						"label": "struct Listing",
						"members": [
							{
								"astId": 254,
								"contract": "contracts/Marketplace.sol:Marketplace",
								"label": "active",
								"offset": 0,
								"slot": "0",
								"type": "t_bool"
							},
							{
								"astId": 256,
								"contract": "contracts/Marketplace.sol:Marketplace",
								"label": "seller",
								"offset": 1,
								"slot": "0",
								"type": "t_address"
							},
							{
								"astId": 258,
								"contract": "contracts/Marketplace.sol:Marketplace",
								"label": "price",
								"offset": 0,
								"slot": "1",
								"type": "t_uint256"
							},
							{
								"astId": 260,
								"contract": "contracts/Marketplace.sol:Marketplace",
								"label": "token",
								"offset": 0,
								"slot": "2",
								"type": "t_address"
							}
						],
						"numberOfBytes": "96"
					},
					"t_uint256": {
						"encoding": "inplace",
						"label": "uint256",
						"numberOfBytes": "32"
					}
				}
			},
			"userdoc": {
				"kind": "user",
				"methods": {},
				"version": 1
			}
		}
	}
}